S014000046696E616C50726F6A6563742E737265634F
S113000045C000004BC0000049C0000047C00000CC
S113001045C0000043C0000041C000003FC00000D4
S11300203DC000003BC0000039C0000037C00000E4
S113003035C0000033C0000031C000002FC00000F4
S11300402DC000002BC0000029C0000027C0000004
S113005025C0000023C0000021C000001FC0000014
S11300601DC000001BC0000019C0000017C0000024
S113007015C0000013C0000011C000000FC0000034
S11300800DC000000BC0000009C0000011241FBEF9
S1130090CFEFD0E4DEBFCDBF4DD058C0B1CF40E0EC
S11300A050E00CC000002F5F3F4F02C020E030E062
S11300B02E3066E03607B4F34F5F5F4F4817590799
S11300C0ACF308959BB19F7B9BB985B98BB18068D4
S11300D08BB900008BB18F778BB982E090E0DFCFD2
S11300E0089581E0EFCF0895813118F48158EACF63
S11300F008958155E7CF089584E690E0D0DF88E342
S1130100E1DF86E0DFDF8FE0DDDF81E0DBDF8AE057
S113011090E0C5CF08959BB190649BB985B98BB12C
S113012080688BB900008BB18F778BB981E090E048
S1130130B6CF08958FEF84B915B88AB91BB8DCDF40
S1130140D0DF81E0D1DF81E4E6DFFFCFF894FFCF99
S9030000FC
