:100000004CC0000068C0000066C0000064C0000072
:1000100062C0000060C000005EC000005CC0000064
:100020005AC0000058C0000056C0000054C0000074
:1000300052C00000F6C700004EC000004CC00000D7
:100040004AC0000048C0000046C0000044C0000094
:1000500042C0000040C000003EC000003CC00000A4
:100060003AC0000038C0000036C0000034C00000B4
:1000700032C0000030C000002EC000002CC00000C4
:100080002AC0000028C0000026C0000003010A01A9
:10009000070113010301FE00FE0011241FBECFEF74
:1000A000D0E4DEBFCDBF13E0A0E0B1E0E4E0F4E1D6
:1000B00000E00BBF02C007900D92AE34B107D9F734
:1000C00023E0AEE4B3E001C01D92AF3FB207E1F719
:1000D000EED40C94000A94CF20E030E028173907C2
:1000E0004CF44EE056E0000041505109E1F72F5F1B
:1000F0003F4FF4CF08955E9888B95F9A00005F98EB
:1001000082E090E0E9CF81E0F6CF813110F48158B0
:1001100001C08155F0CF84E690E0DEDF88E3EBDFBD
:1001200086E0E9DF8FE0E7DF81E0E5DF8AE090E06D
:10013000D3CF5E9A88B95F9A00005F9881E090E023
:10014000CBCFEF92FF920F931F93CF93DF93182F94
:10015000F62E072FD8DFCF2DD02F7E018881882360
:1001600051F001E0010F812FD0DF2196F70180814E
:10017000E0DF102FF2CFDF91CF911F910F91FF9011
:10018000EF900895CF93DF93009731F097FD6AC009
:10019000833091054CF066C02091EC03213009F0CA
:1001A00052C0C0EAD3E00CC02091EC03223008F02A
:1001B00056C0222309F456C08130910591F343C003
:1001C000EE81E1110AC08091F10383FF03C061E079
:1001D00070E02FC082FF2FC02AC08D8181112BC0FB
:1001E0008C81813041F58E2F90E0FC013197E73012
:1001F000F10508F5EA5BFF4F0C94F70980919F0326
:100200008370C9F404C080919F0380FD14C06FEF18
:100210007FEF06C080919F0380FD0DC061E070E01C
:10022000CE018ED608C080919F03837021F46FEFBA
:100230007FEFCE014AD6299683E0C83ED80709F061
:10024000BFCF81E090E020919F03273010F42F5F13
:1002500001C020E020939F03DF91CF91089582E0B9
:1002600090E0F1CF80E090E0EECFDF92EF92FF924E
:100270000F931F93CF93DF93009731F097FD3FC00B
:100280008330910574F03BC02091EC032130C9F517
:1002900080EAE82E83E0F82EC0E0D0E099E0D92E85
:1002A0000AC02091EC03223038F5222341F181303D
:1002B000910571F326C0F7018481813089F4DC9EB9
:1002C000F001DD9EF00D1124E056FC4F00811181FC
:1002D00022813381448155816681778180855ED614
:1002E0002196F9E0EF0EF11CC830D10521F780E02E
:1002F0000CDF81E090E005C082E090E002C080E089
:1003000090E0DF91CF911F910F91FF90EF90DF90E0
:100310000895EAE7F0E08081806E80830895282FB9
:10032000809178009091790070E0621B71096F5F95
:100330007F4F0E94E309820F08950F931F93CF937D
:10034000DF93182FC62F862FE0DE812F64E60E94F0
:10035000D709092F805DEDDE81E08C0FD6DEDAE073
:10036000802F6D2F0E94D709805DE3DE82E08C0F25
:10037000CCDE812F6D2F0E94D70980E3890FDF919A
:10038000CF911F910F91D5CECF93DF93299881E024
:1003900090E0A2DE299A81E090E09EDE2998D8E0E4
:1003A000C0E0CC0F189BC1602A9881E090E094DEF9
:1003B0002A9A81E090E090DE2A98D15091F78C2F14
:1003C000DF91CF910895892B19F4DEDF8093F1033B
:1003D00080E090E008958AE08093EF0381E08093CD
:1003E000F0031092EE031092ED038093EC03109251
:1003F000F3031092F20308958230910509F442C08C
:100400002CF4009721F1019771F17BC084309105A4
:1004100009F473C00CF45FC0059709F072C0209115
:10042000EF038091ED039091EE03C2963FE0239F8E
:10043000800D911D11249093EE038093ED03109293
:10044000EF031092F0035FDE66E373E04BC010929F
:10045000EF031092F0031092EC0360E073E081E090
:1004600070DE80E052DE8091F10384FF4DC0B3DF87
:1004700080EA93E0DDD481E08093EC0344DE82E007
:1004800090E008952091F2033091F3032F5F3F4FE6
:100490003093F3032093F2034091A403442321F00B
:1004A000243942E0340730F082E08093EC0383E0AB
:1004B00090E00CC02B35324048F02091E30321112D
:1004C00005C083E08093EC0385E090E02091F10388
:1004D00025FF1CC016C01092EF031092F00313DE2C
:1004E0006FE173E081E02DDE68E18091ED0325DFAF
:1004F00080E00BDE84E090E008952091F10325FF79
:10050000089580E090E0089581E090E0089592B130
:10051000823018F0966092B905C0997F92B9813007
:1005200009F4119A139A1398139A90E0029728E00D
:100530001816190614F4169A01C016980197149803
:10054000149A14982150A1F71598159A15980895A2
:10055000CF93DF93EC018091EF03D9DF8091F0031B
:10056000882311F0179A01C01798209731F4209131
:10057000EC03213009F0CCC003C0C0E0D0E0C8C01B
:10058000809178009091790065E070E01CD7019728
:10059000F9F48091AD0381111BC02093AD0380E17C
:1005A0008093A9031092AA036091AC0380E0B7DEA8
:1005B0008093AB032091B0033091B1036091AF03FE
:1005C000A90178E0879F400D511D1124CA0103D471
:1005D0008091F10390E0880F892F881F990B892B58
:1005E00079F18091B60381112BC08091EF038823AC
:1005F00039F181E08093B60384E08093B203809167
:10060000A1038093B3039091A2039093B40320912C
:10061000B9033091BA036091B803A90178E0979FBC
:10062000400D511D1124CA01D6D38AE091E0909368
:10063000F5038093F4038091EF0381508093EF03DF
:100640008091F10386FF22C08091C80381111EC0F2
:100650008091F0038823D1F08091A103811116C00D
:1006600081E08093C80393E09093C4038093C50313
:100670001092C6036091CA038091CB039091CC0382
:10068000AAD38091F00381508093F0038091F2030C
:100690009091F30388559240069768F48091E303A4
:1006A000811109C081E08093E30390E19093DF031F
:1006B0008093E0032BC0809178009091790065E0F1
:1006C00070E081D6039769F48091D103811109C04C
:1006D00081E08093D10390E19093CD038093CE038A
:1006E00015C0809178009091790065E070E06BD63C
:1006F000049761F48091DA03811108C081E080934E
:10070000DA0390E19093D6038093D703C1E0D0E061
:10071000CE01DF91CF9108950F931F93CF93DF9375
:10072000CDB7DEB729970FB6F894DEBF0FBECDBFA9
:100730004D83888929899E89673089F0973019F41B
:10074000643079F01DC0623061F4081750F08823DE
:1007500041F0121315C0992389F081E012C0943042
:1007600079F408130DC012130BC08D81813041F450
:100770008C89813029F4011104C002C00817A9F343
:1007800080E029960FB6F894DEBF0FBECDBFDF9193
:10079000CF911F910F910895CF93DF93EC01998131
:1007A000888120E1929F800D1124AFDC80E2C1DCC2
:1007B00080E0ABDC8E81813041F0863079F480912D
:1007C000ED039091EE030A9605C08091ED039091A0
:1007D000EE0344969093EE038093ED0318821C82FF
:1007E000DF91CF9108954F925F926F927F928F9297
:1007F0009F92AF92BF92CF92DF92EF92FF920F93B0
:100800001F93CF93DF93009731F097FD8CC0833017
:1008100091053CF088C02091EC03213009F085C09F
:100820000CC02091EC03223008F07AC0222309F496
:100830007AC08130910509F078C09091C60380910B
:10084000C703981303C084EC93E0A6DF90EA892ED7
:1008500093E0992EE12CF12C29E0522E30E0632E0A
:1008600031E0732E4E2C80EAA82E83E0B82EC12CE6
:10087000D12C5E9CE0015F9CD00D1124C056DC4F52
:100880004C14A9F15C9CF0015D9CF00D1124E05624
:10089000FC4F2DB73EB7295031090FB6F8943EBF33
:1008A0000FBE2DBFADB7BEB71196852D01900D922D
:1008B0008A95E1F7088119812A813B814C815D810C
:1008C0006E817F81888528DF2DB73EB7275F3F4F38
:1008D0000FB6F8943EBF0FBE2DBF813041F4C40166
:1008E0005BDFC50159DF7092F5036092F4033FEFBF
:1008F000C31AD30A89E0A80EB11C98E0C916D10426
:1009000009F0BECF2FEFE21AF20A39E0830E911CF4
:1009100088E0E816F10409F0A5CF81E090E005C079
:1009200082E090E002C080E090E0DF91CF911F91E3
:100930000F91FF90EF90DF90CF90BF90AF909F907E
:100940008F907F906F905F904F900895E091F403A7
:10095000F091F503309709F44BC00190F081E02D40
:1009600080919D0390919E03E80FF91FE08184E040
:10097000E89FF0011124EE58FE4F60817181828161
:100980009381B6D120919B0330919C032F5F3F4F01
:1009900030939C0320939B03A091F403B091F50343
:1009A00080919D0390919E031296ED91FC91139777
:1009B000E80FF91F408150E02417350749F41092E1
:1009C0009C0310929B03019690939E0380939D033A
:1009D00014962D913C91159780919D0390919E03C3
:1009E0008217930790F01092F5031092F40305C05C
:1009F00060E070E68AEE96E47BD110929E0310923E
:100A00009D0310929C0310929B030895CF93DF9354
:100A1000EC019CDFC230D10529F134F4209741F07C
:100A2000C130D10571F03DC0C530D10594F139C058
:100A300091E080E02091EC03211190E0C92FD82FA4
:100A400032C08CE491E09093F5038093F40380919D
:100A5000EC03813041F51092F5031092F403C2E0EB
:100A6000D0E021C08091EC03823049F484E191E030
:100A70009093F5038093F403C3E0D0E00AC0833081
:100A800041F48CE491E09093F5038093F403C4E087
:100A9000D0E08091EC03811106C01092F503109212
:100AA000F403C0E0D0E0CE01DF91CF910895CF9361
:100AB000DF93CDB7DEB72E970FB6F894DEBF0FBE2B
:100AC000CDBF8EEF81B986E484B915B81FEF17B991
:100AD00018B81AB91BB81DDC80E885BF85BF8EE049
:100AE000E2EFF2E0DE01119601900D928A95E1F7B6
:100AF0001093900342E350E060E070E04093910374
:100B000050939203609393037093940340939503DF
:100B100050939603609397037093980383EE91E04C
:100B200090939A03809399031093850340938603CF
:100B300050938703609388037093890340938A03DB
:100B400050938B0360938C0370938D0382EC90E041
:100B500090938F0380938E0310937A0384E690E042
:100B6000A0E0B0E080937B0390937C03A0937D038F
:100B7000B0937E0380937F0390938003A0938103BF
:100B8000B093820325E331E0309384032093830301
:100B900010936F038093700390937103A09372037B
:100BA000B09373038093740390937503A0937603BB
:100BB000B093770328EA32E03093790320937803E7
:100BC000109364038093650390936603A093670377
:100BD000B09368038093690390936A03A0936B03B7
:100BE000B0936C0323EF33E030936E0320936D03D7
:100BF0001093590340935A0350935B0360935C0333
:100C000070935D0340935E0350935F0360936003B2
:100C1000709361032CEF31E0309363032093620300
:100C200010934E0380934F0390935003A09351036E
:100C3000B09352038093530390935403A0935503AE
:100C4000B093560386E095E0909358038093570342
:100C500062E370E080E090E020D2BFD15CDA53DA4A
:100C600068E082EB91E0CFD0ACD06E018FE0C80E8F
:100C7000D11CDE0111967D01F701019111917F01D7
:100C8000D80115964D915D916D917C9118971196B3
:100C90008D919D910D90BC91A02D481759076A0721
:100CA0007B0780F0F80180810184F285E02D082E19
:100CB000000C990B0995D8018C93F80115821682C6
:100CC00017821086F80185819681A781B085C2962A
:100CD000A11DB11D85839683A783B087EC14FD0405
:100CE00059F68091FE038823E1F31092FE03C1CFF1
:100CF000CF92DF92EF92FF926B017C019B01AC01DE
:100D00006091E8037091E9038091EA039091EB030D
:100D1000D5D1882309F450C020E030E0A901C701F3
:100D2000B601CCD1811104C080919100887003C0BC
:100D30008091910083608093910028E539E344E736
:100D40005FE3C701B601BAD187FF07C08FEF9FEFFE
:100D5000909399008093980023C020E034E244EF00
:100D600056E4C701B601BCD218162CF410929900B3
:100D70001092980015C020E030E040E053E4C70135
:100D8000B601B2D29B01AC0160E074E284EF9AE458
:100D900099D100D2615071097093990060939800C5
:100DA0001092950010929400C092E803D092E9034B
:100DB000E092EA03F092EB03FF90EF90DF90CF9088
:100DC000089580E4809390008BE08093910060E030
:100DD00070E0CB018DCF0F931F93CF93DF938C01E6
:100DE000862F880F880F880F805C85D9E801085FFF
:100DF0001F4F89919ED9C017D107D9F7DF91CF91A5
:100E00001F910F9108950F931F93CF93DF93D62FC8
:100E10008C01C0E0CD1739F06C2FC801DCDFCF5F4B
:100E2000085F1F4FF7CFDF91CF911F910F9108956A
:100E3000FF920F931F93CF93DF93EC0180E090E03C
:100E400029E0FE01E80FF91FDF01322F1D923A95CC
:100E5000E9F7099688349105A1F783E0F82EF88226
:100E600001E009831A8215E01B830C831E8282EB4A
:100E700092E098878F8360E0AEDFFC860F8782E781
:100E800092E0998B888B80E189870D871D8B82E0AA
:100E9000888F82E392E09A8F898F1E8FF9A29BA39D
:100EA0008AA31FA384E08AA782EF91E09CA78BA767
:100EB00086E08BAB8CAFCB5BDF4F87E08883DF9125
:100EC000CF911F910F91FF900895CF93DF93EC0185
:100ED0008A816F3F3FEF7307A1F06130710511F513
:100EE000882311F0815011C089818130D9F48B8120
:100EF0008A838881805F09D980E21BD989818150EA
:100F000010C09B81891718F48F5F8A830BC0898179
:100F1000811108C01A828881F8D880E20AD98981B3
:100F20008F5F89832A818F8198856E8138E0239F26
:100F3000800D911D11244FDF80E0DF91CF91E5C836
:100F4000CF93DF93EC016F3F2FEF720721F06130F9
:100F5000710591F01FC09981888120E1929F800DD9
:100F60001124D3D880E2E5D88881823010F08150F6
:100F700010C018821C820EC09981888120E1929F46
:100F8000800D1124C2D880E2D4D88881803188F7BE
:100F90008F5F888380E0DF91CF91B7C80F931F9355
:100FA000CF93DF93CDB7DEB729970FB6F894DEBFA6
:100FB0000FBECDBF6F83802F90E1199F800D11244C
:100FC000A4D88F8129960FB6F894DEBF0FBECDBF8F
:100FD000DF91CF911F910F91ACC88BE0809381007E
:100FE0008DE790E0909389008093880082E0809361
:100FF0006F0010928500109284008091FA03909106
:10100000FB03A091FC03B091FD038093F603909342
:10101000F703A093F803B093F9038FB780688FBFED
:1010200008951F920F920FB60F9211248F939F93E2
:10103000AF93BF938091F6039091F703A091F803CB
:10104000B091F9030197A109B1098093F603909338
:10105000F703A093F803B093F903892B8A2B8B2B0A
:1010600099F481E08093FE038091FA039091FB0351
:10107000A091FC03B091FD038093F6039093F703D6
:10108000A093F803B093F903BF91AF919F918F9113
:101090000F900FBE0F901F9018956093FA037093F6
:1010A000FB038093FC039093FD036093F60370931E
:1010B000F7038093F8039093F90308959CD008F404
:1010C00081E008950CD0D2C0CAD040F0C1D030F039
:1010D00021F45F3F19F0B3C05111FCC0B6C0D7D0A6
:1010E00098F39923C9F35523B1F3951B550BBB27EF
:1010F000AA2762177307840738F09F5F5F4F220F9C
:10110000331F441FAA1FA9F333D00E2E3AF0E0E894
:1011100030D091505040E695001CCAF729D0FE2FE0
:1011200027D0660F771F881FBB1F26173707480772
:10113000AB07B0E809F0BB0B802DBF01FF27935828
:101140005F4F2AF09E3F510568F079C0C3C05F3FF2
:10115000ECF3983EDCF3869577956795B795F79510
:101160009F5FC9F7880F911D9695879597F9089508
:10117000E1E0660F771F881FBB1F621773078407A4
:10118000BA0720F0621B730B840BBA0BEE1F88F7B3
:10119000E095089504D06894B1119CC008957FD063
:1011A00088F09F5790F0B92F9927B751A0F0D1F050
:1011B000660F771F881F991F1AF0BA95C9F712C0DA
:1011C000B13081F086D0B1E0089583C0672F782FC9
:1011D0008827B85F39F0B93FCCF386957795679546
:1011E000B395D9F73EF490958095709561957F4FB2
:1011F0008F4F9F4F0895990F0008550FAA0BE0E8F5
:10120000FEEF16161706E807F907C0F012161306C8
:10121000E407F50798F0621B730B840B950B39F408
:101220000A2661F0232B242B252B21F408950A266E
:1012300009F4A140A6958FEF811D811D089597F9AE
:101240009F6780E870E060E008959FEF80EC08956C
:1012500000240A9416161706180609060895002495
:101260000A9412161306140605060895092E03940F
:10127000000C11F4882352F0BB0F40F4BF2B11F483
:1012800060FF04C06F5F7F4F8F4F9F4F089557FDE2
:101290009058440F551F59F05F3F71F04795880FE4
:1012A00097FB991F61F09F3F79F08795089512167B
:1012B00013061406551FF2CF4695F1DF08C0161627
:1012C00017061806991FF1CF8695710561050894D8
:1012D0000895E894BB2766277727CB0197F90895EF
:1012E0008ADF08F48FEF08950BD0C0CFB1DF28F06C
:1012F000B6DF18F0952309F0A2CFA7CF1124EACFCB
:10130000C6DFA0F3959FD1F3950F50E0551F629F64
:10131000F001729FBB27F00DB11D639FAA27F00D4E
:10132000B11DAA1F649F6627B00DA11D661F829F75
:101330002227B00DA11D621F739FB00DA11D621F5A
:10134000839FA00D611D221F749F3327A00D611D77
:10135000231F849F600D211D822F762F6A2F112459
:101360009F5750408AF0E1F088234AF0EE0FFF1FAC
:10137000BB1F661F771F881F91505040A9F79E3FE3
:10138000510570F05CCFA6CF5F3FECF3983EDCF3E5
:10139000869577956795B795F795E7959F5FC1F720
:1013A000FE2B880F911D9695879597F90895991BA7
:1013B00079E004C0991F961708F0961B881F7A954C
:1013C000C9F780950895AA1BBB1B51E107C0AA1F4E
:1013D000BB1FA617B70710F0A61BB70B881F991FD6
:1013E0005A95A9F780959095BC01CD010895EE0F0F
:1013F000FF1F0024001C0BBE0790F691E02D0994FE
:04140000F894FFCF8E
:1014040008010601020001010F0E12011001020081
:1014140001010D0C33011A01190005010501050133
:1014240003030603030C0501050105010303060379
:10143400030C010210021002100004020004020650
:101444001006100610070402000402106201520183
:1014540010000C0C0202020C060202020C0602022C
:10146400020C04080706050B080706050B08070607
:101474000705CDCC82439AD99243CDCCA443000036
:10148400B9430000C4430000DC4333F3F64333D3D1
:10149400024433D3124433D32444000039440000BB
:1014A40044440080BB440000FA4400004842000069
:1014B400C8421C0F1C0000000000060F0F0F06009E
:1014C4000000000E000000000000000E00000000FC
:1014D4000000040E040000000000000201000000EF
:1014E4000000000000100B070707000000000000C8
:1014F4000A1B040E04000000000000040E04000097
:1015040000000000040E04000000000000040E04AB
:10151400000000000000040E0400000000000004AD
:101524000E040000000000000000000000000000A5
:101534000000000E00000000000000000E0000008B
:1015440000000000000E00000000000000000E007B
:10155400000000000000000E000000000000000079
:101564000E00000000000000000000000000000069
:101574000000060F0F0F0600000000060F0F0F06F5
:1015840000000000060F0F0F0600000000060F0FFA
:101594000F06000000000000000000000000000032
:1015A4000000000000000000000000000000000037
:1015B40000001C0F1C0000000000001C0F1C000099
:1015C400000000001C0F1C0000000000001C0F1C89
:1015D4000000000000001C0F1C0000000000001CA4
:1015E4000F1C0000000000000000000000000000CC
:1015F40000005903900385036F037A0364034E03C9
:101604002020205472656E63682052756E2020205D
:101614002020507265737320205354415254005952
:101624006F75204C6F7365212020202020202053CB
:10163400636F72653A00596F752057696E212020D7
:0E16440020202020202053636F72653A0000A2
:00000001FF
