S014000046696E616C50726F6A6563742E737265634F
S113000045C0000060C000005EC000005CC000008D
S11300105AC0000058C0000056C0000054C0000080
S113002052C0000050C000004EC000004CC0000090
S11300304AC0000027C6000046C0000044C00000BB
S113004042C0000040C000003EC000003CC00000B0
S11300503AC0000038C0000036C0000034C00000C0
S113006032C0000030C000002EC000002CC00000D0
S11300702AC0000028C0000026C0000024C00000E0
S113008022C0000020C000001EC0000011241FBEBA
S1130090CFEFD0E4DEBFCDBF12E0A0E0B1E0EAE4F0
S11300A0FDE000E00BBF02C007900D92A23CB10737
S11300B0D9F723E0A2ECB2E001C01D92AB35B20740
S11300C0E1F7B3D340C69CCF20E030E028173907CE
S11300D04CF44EE056E0000041505109E1F72F5F27
S11300E03F4FF4CF08955E9888B95F9A00005F98F7
S11300F082E090E0E9CF81E0F6CF813110F48158BD
S113010001C08155F0CF84E690E0DEDF88E3EBDFC9
S113011086E0E9DF8FE0E7DF81E0E5DF8AE090E079
S1130120D3CF5E9A88B95F9A00005F9881E090E02F
S1130130CBCFEF92FF920F931F93CF93DF93182FA0
S1130140F62E072FD8DFCF2DD02F7E01888188236C
S113015051F001E0010F812FD0DF2196F70180815A
S1130160E0DF102FF2CFDF91CF911F910F91FF901D
S1130170EF900895CF93DF93009731F097FD67C018
S1130180833091054CF063C020914D03213009F078
S11301904FC0C5E0D3E00CC020914D03223009F4D8
S11301A053C0222309F453C08130910591F340C018
S11301B08E8181110EC08091510383FF03C061E0E1
S11301C070E004C082FF2CC06FEF7FEFCE01AED48D
S11301D027C09D81911124C09C81913009F5833001
S11301E0A1F028F4813069F0823091F019C0853093
S11301F041F0B0F08830A0F480910403837081F45E
S113020004C08091040380FD0BC06FEF7FEF06C034
S11302108091040380FD04C061E070E0CE01C1D48C
S1130220299683E0CD34D80709F0C2CF81E090E06D
S113023020910403273010F42F5F01C020E02093A5
S11302400403DF91CF91089582E090E0F1CF80E044
S113025090E0EECFDF92EF92FF920F931F93CF9334
S1130260DF93009731F097FD3FC08330910574F020
S11302703BC020914D032130C9F585E0E82E83E091
S1130280F82EC0E0D0E099E0D92E0AC020914D03A9
S1130290223039F1222341F18130910571F326C0D6
S11302A0F7018481813089F4DC9EF001DD9EF00D3C
S11302B01124EB5FFC4F0081118122813381448141
S11302C055816681778180859AD42196F9E0EF0E75
S11302D0F11CC830D10521F780E00FDF81E090E008
S11302E005C082E090E002C080E090E0DF91CF9111
S11302F01F910F91FF90EF90DF900895EAE7F0E0EF
S11303008081806E80830895282F80917800909159
S1130310790070E0621B71096F5F7F4F00D5820F17
S11303200895CF92DF92EF92FF920F931F93CF9392
S11303308C01C62F862FE1DEC80160E177E2EFD49D
S11303406C0180E3860FEDDE81E08C0FD6DE88EE53
S1130350E82E83E0F82EC601B701E1D480E3860FCE
S1130360E0DE82E08C0FC9DEC801B701D8D424E6F0
S1130370E22EF12CB701D3D480E3860FD2DE83E0E2
S11303808C0FBBDEC801B701CAD43AE0E32EF12CCE
S1130390B701C5D480E3860FC4DE84E08C0FADDEE4
S11303A0C801B701BCD4805DCF911F910F91FF901C
S11303B0EF90DF90CF90B5CE6115710591F09C015F
S11303C040E050E0F901E89F9001E99F300DF89F6B
S11303D0300D11244F5F5F4F6417750799F7C901FA
S11303E0089581E090E00895CF93DF93EC0182B10A
S11303F0817082B96091500370E082E090E0DCDFAC
S113040022B101978E7F9927822B82B98BB1887F85
S11304108BB96091500370E082E090E0CDDF2BB1A6
S11304200197892F8770282B2BB9209731F42091BD
S11304304D03213009F075C003C0C0E0D0E071C0A5
S1130440809178009091790065E070E068D401971C
S1130450F9F48091120381111BC02093120380E1EF
S113046080930E0310920F036091110380E04CDF20
S113047080931003209115033091160360911403A7
S1130480A90178E0879F400D511D1124CA01D5D2DE
S11304908091510390E0880F892F881F990B892B35
S11304A049F180911B03811125C080915003882359
S11304B009F181E080931B0384E08093170380910A
S11304C006038093180390910703909319032091D6
S11304D01E0330911F0360911D03A90178E0979FCB
S11304E0400D511D1124CA01A8D28091500381509E
S11304F080935003809178009091790065E070E0DA
S11305000ED4029761F480913F03811108C081E009
S113051080933F0390E190933B0380933C03C1E0BD
S1130520D0E0CE01DF91CF910895CF93DF93299846
S113053081E090E0C9DD299A81E090E0C5DD299849
S1130540D8E0C0E0CC0F189BC1602A9881E090E00D
S1130550BBDD2A9A81E090E0B7DD2A98D15091F76B
S11305608C2FDF91CF910895892B19F4DEDF8093CE
S1130570510380E090E008958AE080935003109244
S11305804F0310924E0381E080934D03089582300F
S1130590910529F12CF4009759F0019789F043C093
S11305A08330910551F18430910509F438C03BC082
S11305B010924D036CE872E081E0BBDD80E09DDDCC
S11305C08091510384FF32C0D7DF85E093E062D28B
S11305D081E080934D038FDD82E090E008952091C7
S11305E00903211105C082E080934D0383E090E06C
S11305F02091510325FF1CC016C0109250037BDDCF
S11306006BEA72E081E095DD69E180914E0390919F
S11306104F0387DE80E071DD84E090E0089520914F
S1130620510325FF089580E090E0089581E090E073
S113063008950F931F93CF93DF93CDB7DEB7299718
S11306400FB6F894DEBF0FBECDBF4D83888999895C
S1130650623059F4081748F0882339F0191314C08C
S11306609E89992379F081E010C008130DC01913F5
S11306700BC08D81813041F48C89813029F40111C2
S113068004C002C00817A9F380E029960FB6F894B5
S1130690DEBF0FBECDBFDF91CF911F910F910895A3
S11306A0CF93DF93EC019981888120E1929F800DA3
S11306B0112423DD80E235DD80E01FDD8E81813071
S11306C041F0863079F480914E0390914F030A965D
S11306D005C080914E0390914F03449690934F032D
S11306E080934E0318821C82DF91CF9108956F92FC
S11306F07F928F929F92AF92BF92CF92DF92EF92AE
S1130700FF920F931F93CF93DF93009731F097FDE0
S11307107BC0833091057CF077C020914D0321305C
S113072009F074C095E0692E93E0792EE12CF12C48
S113073029E0B22E0CC020914D03223009F461C08F
S1130740222309F461C08130910561F35FC0AE2CAE
S113075085E0882E83E0982EC12CD12CBE9CE0012C
S1130760BF9CD00D1124CB5FDC4FAC1489F1BC9C31
S1130770F001BD9CF00D1124EB5FFC4F2DB73EB78B
S1130780295031090FB6F8943EBF0FBE2DBFADB747
S1130790BEB711968B2D01900D928A95E1F70881D1
S11307A019812A813B814C815D816E817F8188859D
S11307B040DF2DB73EB7275F3F4F0FB6F8943EBFDB
S11307C00FBE2DBF813021F4C3016ADFC40168DF8D
S11307D03FEFC31AD30A89E0880E911C98E0C9162A
S11307E0D10409F0C2CF2FEFE21AF20A39E0630E06
S11307F0711C88E0E816F10409F0A9CF81E090E0CB
S113080005C082E090E002C080E090E0DF91CF91EB
S11308101F910F91FF90EF90DF90CF90BF90AF901A
S11308209F908F907F906F900895CF93DF93CDB773
S1130830DEB72C970FB6F894DEBF0FBECDBF8EEF98
S113084081B986E484B915B81FEF17B918B81AB975
S11308501BB854DD80E885BF85BF8CE0E0E8F2E09A
S1130860DE01119601900D928A95E1F71093F90239
S113087082E390E0A0E0B0E08093FA029093FB0260
S1130880A093FC02B093FD028093FE029093FF02BA
S1130890A0930003B093010324EB32E030930303ED
S11308A0209302031093EE028093EF029093F002E0
S11308B0A093F102B093F2028093F3029093F402B6
S11308C0A093F502B093F6022AEB30E03093F802DD
S11308D02093F7021093E30244E650E060E070E0F6
S11308E04093E4025093E5026093E6027093E702BA
S11308F04093E8025093E9026093EA027093EB029A
S11309002AE231E03093ED022093EC021093D802F6
S11309104093D9025093DA026093DB027093DC02B5
S11309204093DD025093DE026093DF027093E00295
S113093024EF31E03093E2022093E1021093CD02E0
S11309408093CE029093CF02A093D002B093D102B1
S11309508093D2029093D302A093D402B093D50291
S113096027E733E03093D7022093D6021093C202D4
S11309708093C3029093C402A093C502B093C602AD
S11309808093C7029093C802A093C902B093CA028D
S113099087EC92E09093CC028093CB0262E370E008
S11309A080E090E0ABD14AD1AEDBA5DB68E080E02B
S11309B091E05BD06E018DE0C80ED11CDE01119672
S11309C07D01F701019111917F01D80115964D9197
S11309D05D916D917C91189711968D919D910D90DB
S11309E0BC91A02D481759076A077B0780F0F801CE
S11309F080810184F285E02D082E000C990B099565
S1130A00D8018C93F8011582168217821086F8019A
S1130A1085819681A781B085C296A11DB11D85836C
S1130A209683A783B087EC14FD0459F680915A038A
S1130A308823E1F310925A03C1CF0F931F93CF93EE
S1130A40DF938C01862F880F880F880F805C4BDB27
S1130A50E801085F1F4F899164DBC017D107D9F7FC
S1130A60DF91CF911F910F9108950F931F93CF930F
S1130A70DF93D62F8C01C0E0CD1739F06C2FC8015D
S1130A80DCDFCF5F085F1F4FF7CFDF91CF911F915E
S1130A900F910895CF93DF93FC0180E090E029E06B
S1130AA0DF01A80FB91FED01322F19923A95E9F72A
S1130AB0099688349105A1F723E0208391E091837E
S1130AC0128285E083839483168240E452E0508747
S1130AD047832487978740E052E0518B408B30E175
S1130AE031879587858B32E0308F40EC51E0528F0F
S1130AF0418F868F21A353A342A32FE0238F978F87
S1130B0087A394E092A720E831E034A723A796E0D6
S1130B1090AB83AB20E431E035AB24AB94AFEB5B1B
S1130B20FF4F87E08083DF91CF910895CF93DF93C8
S1130B30EC018A816F3F3FEF7307A1F061307105CB
S1130B4011F5882311F0815011C089818130D9F4C5
S1130B508B818A838881805FD0DA80E2E2DA8981BE
S1130B60815010C09B81891718F48F5F8A830BC052
S1130B708981811108C01A828881BFDA80E2D1DAC2
S1130B8089818F5F89832A818F8198856E8138E07E
S1130B90239F800D911D112450DF80E0DF91CF91C0
S1130BA0ACCACF93DF93EC016F3F2FEF720721F0B4
S1130BB06130710591F01FC09981888120E1929F75
S1130BC0800D11249ADA80E2ACDA8881823010F048
S1130BD0815010C018821C820EC09981888120E146
S1130BE0929F800D112489DA80E29BDA888180311A
S1130BF088F78F5F888380E0DF91CF917ECA0F935F
S1130C001F93CF93DF93CDB7DEB729970FB6F89430
S1130C10DEBF0FBECDBF6F83802F90E1199F800D83
S1130C2011246BDA8F8129960FB6F894DEBF0FBEBC
S1130C30CDBFDF91CF911F910F9173CA8BE0809349
S1130C4081008DE790E0909389008093880082E092
S1130C5080936F0010928500109284008091560357
S1130C6090915703A0915803B09159038093520374
S1130C7090935303A0935403B09355038FB78068A4
S1130C808FBF08951F920F920FB60F9211248F9366
S1130C909F93AF93BF938091520390915303A0917C
S1130CA05403B09155030197A109B10980935203EC
S1130CB090935303A0935403B0935503892B8A2B29
S1130CC08B2B99F481E080935A0380915603909181
S1130CD05703A0915803B091590380935203909302
S1130CE05303A0935403B0935503BF91AF919F91C5
S1130CF08F910F900FBE0F901F901895609356031D
S1130D00709357038093580390935903609352034D
S1130D107093530380935403909355030895AA1B2F
S1130D20BB1B51E107C0AA1FBB1FA617B70710F0D2
S1130D30A61BB70B881F991F5A95A9F78095909504
S10D0D40BC01CD010895F894FFCF23
S1130D4A1C0F1C0000000000060F0F0F0600000015
S1130D5A000E000000000000000E00000000000069
S1130D6A040E04000000000000020100000000005C
S1130D7A000000100B0707070000000000000A1B10
S1130D8A000201000000000004020000000000004C
S1130D9A000000000000100800000000020100002A
S1130DAA0000080400000000001000000000000019
S1130DBA0100000000000000000000000000000024
S1130DCA040E04000000000000040E0400000000E9
S1130DDA0000040E04000000000000040E040000D9
S1130DEA00000000040E04000000000000040E04C9
S1130DFA00000000000000000000000000000000E5
S1130E0A000E00000000000000000E0000000000B8
S1130E1A0000000E00000000000000000E000000A8
S1130E2A00000000000E00000000000000000E0098
S1130E3A00000000000000000000000000000000A4
S1130E4A060F0F0F0600000000060F0F0F06000022
S1130E5A0000060F0F0F0600000000060F0F0F0612
S1130E6A0000000000000000000000000000000074
S1130E7A0000000000000000000000000000000064
S1130E8A1C0F1C0000000000001C0F1C00000000C6
S1130E9A00001C0F1C0000000000001C0F1C0000B6
S1130EAA000000001C0F1C0000000000001C0F1CA6
S1130EBA0000000000000000000000000000000024
S1130ECAC202F902EE02D802E302CD022020205423
S1130EDA72656E63682052756E202020202050723D
S1130EEA6573732020535441525400596F75204C32
S1130EFA6F7365212020202020202053636F7265A0
S1050F0A3A00A7
S9030000FC
