:100000004CC0000068C0000066C0000064C0000072
:1000100062C0000060C000005EC000005CC0000064
:100020005AC0000058C0000056C0000054C0000074
:1000300052C00000F5C700004EC000004CC00000D8
:100040004AC0000048C0000046C0000044C0000094
:1000500042C0000040C000003EC000003CC00000A4
:100060003AC0000038C0000036C0000034C00000B4
:1000700032C0000030C000002EC000002CC00000C4
:100080002AC0000028C0000026C0000003010A01A9
:10009000070113010301FE00FE0011241FBECFEF74
:1000A000D0E4DEBFCDBF13E0A0E0B1E0EAEEF3E1C3
:1000B00000E00BBF02C007900D92A634B107D9F73C
:1000C00023E0A6E4B3E001C01D92A73FB207E1F729
:1000D000EED40C94F30994CF20E030E028173907D0
:1000E0004CF44EE056E0000041505109E1F72F5F1B
:1000F0003F4FF4CF08955E9888B95F9A00005F98EB
:1001000082E090E0E9CF81E0F6CF813110F48158B0
:1001100001C08155F0CF84E690E0DEDF88E3EBDFBD
:1001200086E0E9DF8FE0E7DF81E0E5DF8AE090E06D
:10013000D3CF5E9A88B95F9A00005F9881E090E023
:10014000CBCFEF92FF920F931F93CF93DF93182F94
:10015000F62E072FD8DFCF2DD02F7E018881882360
:1001600051F001E0010F812FD0DF2196F70180814E
:10017000E0DF102FF2CFDF91CF911F910F91FF9011
:10018000EF900895CF93DF93009731F097FD6AC009
:10019000833091054CF066C02091E403213009F0D2
:1001A00052C0C8E9D3E00CC02091E403223009F426
:1001B00056C0222309F456C08130910591F343C003
:1001C000EE81E1110AC08091E90383FF03C061E081
:1001D00070E02FC082FF2FC02AC08D8181112BC0FB
:1001E0008C81813041F58E2F90E0FC013197E73012
:1001F000F10508F5EA5BFF4F0C94EA09809197033B
:100200008370C9F404C08091970380FD14C06FEF20
:100210007FEF06C08091970380FD0DC061E070E024
:10022000CE018DD608C080919703837021F46FEFC3
:100230007FEFCE0149D6299683E0C03ED80709F06A
:10024000BFCF81E090E020919703273010F42F5F1B
:1002500001C020E020939703DF91CF91089582E0C1
:1002600090E0F1CF80E090E0EECFDF92EF92FF924E
:100270000F931F93CF93DF93009731F097FD3FC00B
:100280008330910574F03BC02091E4032130C9F51F
:1002900088E9E82E83E0F82EC0E0D0E099E0D92E7E
:1002A0000AC02091E403223039F1222341F1813048
:1002B000910571F326C0F7018481813089F4DC9EB9
:1002C000F001DD9EF00D1124E856FC4F00811181F4
:1002D00022813381448155816681778180855DD615
:1002E0002196F9E0EF0EF11CC830D10521F780E02E
:1002F0000CDF81E090E005C082E090E002C080E089
:1003000090E0DF91CF911F910F91FF90EF90DF90E0
:100310000895EAE7F0E08081806E80830895282FB9
:10032000809178009091790070E0621B71096F5F95
:100330007F4F0E94D609820F0895CF92DF92EF92ED
:10034000FF920F931F93CF938C01C62F862FDDDE74
:10035000C80160E177E20E94D6096C0180E3860F54
:10036000E8DE81E08C0FD1DE88EEE82E83E0F82E07
:10037000C601B7010E94D60980E3860FDADE82E06B
:100380008C0FC3DEC801B7010E94D60924E6E22E15
:10039000F12CB7010E94D60980E3860FCADE83E004
:1003A0008C0FB3DEC801B7010E94D6093AE0E32EF4
:1003B000F12CB701FBD780E3860FBBDE84E08C0F06
:1003C000A4DEC801B701F2D7805DCF911F910F91D4
:1003D000FF90EF90DF90CF90ACCECF93DF93299832
:1003E00081E090E079DE299A81E090E075DE29983D
:1003F000D8E0C0E0CC0F189BC1602A9881E090E063
:100400006BDE2A9A81E090E067DE2A98D15091F75E
:100410008C2FDF91CF910895892B19F4DEDF809323
:10042000E90380E090E008958AE08093E70381E0AB
:100430008093E8031092E6031092E5038093E403AF
:100440001092EB031092EA0308958230910509F4AB
:1004500041C02CF4009719F1019769F17CC08430F8
:10046000910509F474C00CF45EC0059709F073C0DF
:100470002091E7038091E5039091E6033FE0239FFD
:10048000800D911D11249093E6038093E503109253
:10049000E7031092E80337DE6EE273E04BC0109280
:1004A000E7031092E8031092E40368EF72E081E042
:1004B00048DE80E02ADE8091E90384FF4FC0B4DF8C
:1004C00088E993E0B5D481E08093E4031CDE82E008
:1004D00090E008952091EA033091EB032F5F3F4FA6
:1004E0003093EB032093EA0340919C03442321F0D3
:1004F0002C3641E0340730F082E08093E40383E05F
:1005000090E00CC02133314048F02091DB032111F1
:1005100005C082E08093E40385E090E02091E90348
:1005200025FF1EC018C01092E7031092E803EBDD10
:1005300067E173E081E005DE69E18091E503909178
:10054000E603FBDE80E0E1DD84E090E008952091A9
:10055000E90325FF089580E090E0089581E090E0B0
:10056000089592B1823018F0966092B905C0997FD3
:1005700092B9813009F4119A139A1398139A90E062
:10058000029728E01816190614F4169A01C0169856
:1005900001971498149A14982150A1F71598159A58
:1005A00015980895CF93DF93EC018091E703D9DF8D
:1005B0008091E803882311F0179A01C017982097BB
:1005C00031F42091E403213009F0B5C003C0C0E04C
:1005D000D0E0B1C0809178009091790065E070E042
:1005E000E5D60197F9F48091A50381111BC02093F2
:1005F000A50380E18093A1031092A2036091A4035C
:1006000080E08DDE8093A3032091A8033091A9039D
:100610006091A703A90178E0879F400D511D112427
:10062000CA01D9D38091E90390E0880F892F881FF0
:10063000990B892B79F18091AE0381112BC08091A8
:10064000E703882339F181E08093AE0384E080934F
:10065000AA03809199038093AB0390919A0390939E
:10066000AC032091B1033091B2036091B003A901B2
:1006700078E0979F400D511D1124CA01ACD38AE048
:1006800091E09093ED038093EC038091E703815018
:100690008093E7038091E90386FF22C08091C00325
:1006A00081111EC08091E8038823D1F080919903C5
:1006B000811116C081E08093C00393E09093BC0346
:1006C0008093BD031092BE036091C2038091C30367
:1006D0009091C40380D38091E80381508093E80314
:1006E000809178009091790065E070E05FD6029784
:1006F00061F48091D203811108C081E08093D2031C
:1007000090E19093CE038093CF038091EA03909180
:10071000EB038C529140069760F48091DB038111CA
:1007200008C081E08093DB0390E19093D70380932E
:10073000D803C1E0D0E0CE01DF91CF9108950F93AF
:100740001F93CF93DF93CDB7DEB729970FB6F894F9
:10075000DEBF0FBECDBF4D83888929899E89673052
:1007600089F0973019F4643079F01DC0623061F47B
:10077000081750F0882341F0121315C0992389F00F
:1007800081E012C0943079F408130DC012130BC02D
:100790008D81813041F48C89813029F4011104C0AC
:1007A00002C00817A9F380E029960FB6F894DEBFBF
:1007B0000FBECDBFDF91CF911F910F910895CF93C1
:1007C000DF93EC019981888120E1929F800D1124B3
:1007D0009CDC80E2AEDC80E098DC8E81813041F0F0
:1007E000863079F48091E5039091E6030A9605C07E
:1007F0008091E5039091E60344969093E6038093FD
:10080000E50318821C82DF91CF9108954F925F9289
:100810006F927F928F929F92AF92BF92CF92DF9210
:10082000EF92FF920F931F93CF93DF93009731F0D6
:1008300097FD8CC0833091053CF088C02091E40383
:10084000213009F085C00CC02091E403223009F466
:100850007AC0222309F47AC08130910509F078C06A
:100860009091BE038091BF03981303C08CEB93E07B
:10087000A6DF98E9892E93E0992EE12CF12C29E04E
:10088000522E30E0632E31E0732E4E2C88E9A82ED4
:1008900083E0B82EC12CD12C5E9CE0015F9CD00D72
:1008A0001124C856DC4F4C14A9F15C9CF0015D9CEE
:1008B000F00D1124E856FC4F2DB73EB729503109F1
:1008C0000FB6F8943EBF0FBE2DBFADB7BEB71196A1
:1008D000852D01900D928A95E1F7088119812A8171
:1008E0003B814C815D816E817F81888528DF2DB7BA
:1008F0003EB7275F3F4F0FB6F8943EBF0FBE2DBFE8
:10090000813041F4C4015BDFC50159DF7092ED0312
:100910006092EC033FEFC31AD30A89E0A80EB11C22
:1009200098E0C916D10409F0BECF2FEFE21AF20AFF
:1009300039E0830E911C88E0E816F10409F0A5CF98
:1009400081E090E005C082E090E002C080E090E0AD
:10095000DF91CF911F910F91FF90EF90DF90CF909B
:10096000BF90AF909F908F907F906F905F904F90CF
:100970000895E091EC03F091ED03309709F44BC03A
:100980000190F081E02D8091950390919603E80FFE
:10099000F91FE08184E0E89FF0011124E65CFE4F3E
:1009A0006081718182819381A3D1209193033091E1
:1009B00094032F5F3F4F3093940320939303A091B0
:1009C000EC03B091ED0380919503909196031296FC
:1009D000ED91FC911397E80FF91F408150E0241727
:1009E000350749F410929403109293030196909363
:1009F00096038093950314962D913C9115978091C1
:100A00009503909196038217930790F01092ED034F
:100A10001092EC0305C060E070E68AEE96E468D1BF
:100A200010929603109295031092940310929303E0
:100A30000895CF93DF93EC019CDFC130D10589F09D
:100A40001CF4CD2B29F02AC0C430D1050CF126C0EE
:100A500091E080E02091E403211190E0C92FD82F8C
:100A600022C08091EC039091ED03892B31F484E155
:100A700091E09093ED038093EC038091E403813047
:100A800091F41092ED031092EC03C2E0D0E00BC0A1
:100A90008091E403823029F0811105C0C0E0D0E0EC
:100AA00002C0C3E0D0E0CE01DF91CF910895CF9393
:100AB000DF93CDB7DEB72E970FB6F894DEBF0FBE2B
:100AC000CDBF8EEF81B986E484B915B81FEF17B991
:100AD00018B81AB91BB81DDC80E885BF85BF8EE049
:100AE000EAEEF2E0DE01119601900D928A95E1F7AF
:100AF0001093880382E390E0A0E0B0E08093890344
:100B000090938A03A0938B03B0938C0380938D03FF
:100B100090938E03A0938F03B09390032CE032E068
:100B2000309392032093910310937D0380937E036F
:100B300090937F03A0938003B093810380938203FB
:100B400090938303A0938403B093850322EC30E059
:100B500030938703209386031093720344E650E09A
:100B600060E070E0409373035093740360937503E7
:100B700070937603409377035093780360937903DF
:100B800070937A0325E331E030937C0320937B0359
:100B900010936703409368035093690360936A035B
:100BA00070936B0340936C0350936D0360936E03DB
:100BB00070936F0322ED32E0309371032093700342
:100BC00010935C0380935D0390935E03A0935F0397
:100BD000B09360038093610390936203A0936303D7
:100BE000B093640326E034E03093660320936503FA
:100BF000109351038093520390935303A093540393
:100C0000B09355038093560390935703A0935803D2
:100C1000B093590385E292E090935B0380935A036B
:100C2000109346034093470350934803609349034E
:100C300070934A0340934B0350934C0360934D03CE
:100C400070934E0389E195E09093500380934F0396
:100C500062E370E080E090E01FD2BED15CDA53DA4C
:100C600068E08AE691E0CFD0ACD06E018FE0C80E8C
:100C7000D11CDE0111967D01F701019111917F01D7
:100C8000D80115964D915D916D917C9118971196B3
:100C90008D919D910D90BC91A02D481759076A0721
:100CA0007B0780F0F80180810184F285E02D082E19
:100CB000000C990B0995D8018C93F80115821682C6
:100CC00017821086F80185819681A781B085C2962A
:100CD000A11DB11D85839683A783B087EC14FD0405
:100CE00059F68091F6038823E1F31092F603C1CF01
:100CF000CF92DF92EF92FF926B017C019B01AC01DE
:100D00006091E0037091E1038091E2039091E3032D
:100D1000D4D1882309F450C020E030E0A901C701F4
:100D2000B601CBD1811104C080919100887003C0BD
:100D30008091910083608093910028E539E344E736
:100D40005FE3C701B601B9D187FF07C08FEF9FEFFF
:100D5000909399008093980023C020E034E244EF00
:100D600056E4C701B601BBD218162CF410929900B4
:100D70001092980015C020E030E040E053E4C70135
:100D8000B601B1D29B01AC0160E074E284EF9AE459
:100D900098D1FFD1615071097093990060939800C8
:100DA0001092950010929400C092E003D092E1035B
:100DB000E092E203F092E303FF90EF90DF90CF9098
:100DC000089580E4809390008BE08093910060E030
:100DD00070E0CB018DCF0F931F93CF93DF938C01E6
:100DE000862F880F880F880F805C85D9E801085FFF
:100DF0001F4F89919ED9C017D107D9F7DF91CF91A5
:100E00001F910F9108950F931F93CF93DF93D62FC8
:100E10008C01C0E0CD1739F06C2FC801DCDFCF5F4B
:100E2000085F1F4FF7CFDF91CF911F910F9108956A
:100E3000CF93DF93FC0180E090E029E0DF01A80F71
:100E4000B91FED01322F19923A95E9F709968834C6
:100E50009105A1F723E0208391E09183128285E040
:100E60008383948316824AEA52E05087478324871B
:100E700097874AE652E0518B408B30E13187958766
:100E8000858B32E0308F4AE252E0528F418F868F5D
:100E900021A353A342A32FE0238F978F87A394E02E
:100EA00092A72AEE31E034A723A796E090AB83AB5C
:100EB0002AEA31E035AB24AB94AFEB5BFF4F87E020
:100EC0008083DF91CF910895CF93DF93EC018A81E6
:100ED0006F3F3FEF7307A1F06130710511F5882373
:100EE00011F0815011C089818130D9F48B818A83BE
:100EF0008881805F0AD980E21CD98981815010C025
:100F00009B81891718F48F5F8A830BC089818111B7
:100F100008C01A828881F9D880E20BD989818F5F55
:100F200089832A818F8198856E8138E0239F800D87
:100F3000911D112450DF80E0DF91CF91E6C8CF935F
:100F4000DF93EC016F3F2FEF720721F061307105E5
:100F500091F01FC09981888120E1929F800D11241A
:100F6000D4D880E2E6D88881823010F0815010C059
:100F700018821C820EC09981888120E1929F800D89
:100F80001124C3D880E2D5D88881803188F78F5F5B
:100F9000888380E0DF91CF91B8C80F931F93CF93E0
:100FA000DF93CDB7DEB729970FB6F894DEBF0FBE3B
:100FB000CDBF6F83802F90E1199F800D1124A5D89C
:100FC0008F8129960FB6F894DEBF0FBECDBFDF919B
:100FD000CF911F910F91ADC88BE0809381008DE779
:100FE00090E0909389008093880082E080936F0066
:100FF00010928500109284008091F2039091F30387
:10100000A091F403B091F5038093EE039093EF0366
:10101000A093F003B093F1038FB780688FBF08955A
:101020001F920F920FB60F9211248F939F93AF933D
:10103000BF938091EE039091EF03A091F003B091E4
:10104000F1030197A109B1098093EE039093EF0397
:10105000A093F003B093F103892B8A2B8B2B99F487
:1010600081E08093F6038091F2039091F303A091C5
:10107000F403B091F5038093EE039093EF03A093F4
:10108000F003B093F103BF91AF919F918F910F90B7
:101090000FBE0F901F9018956093F2037093F303A7
:1010A0008093F4039093F5036093EE037093EF0342
:1010B0008093F0039093F10308959CD008F481E0AD
:1010C00008950CD0D2C0CAD040F0C1D030F021F485
:1010D0005F3F19F0B3C05111FCC0B6C0D7D098F330
:1010E0009923C9F35523B1F3951B550BBB27AA27A9
:1010F00062177307840738F09F5F5F4F220F331F1B
:10110000441FAA1FA9F333D00E2E3AF0E0E830D0E6
:1011100091505040E695001CCAF729D0FE2F27D0E9
:10112000660F771F881FBB1F261737074807AB07B7
:10113000B0E809F0BB0B802DBF01FF2793585F4F2C
:101140002AF09E3F510568F079C0C3C05F3FECF3C1
:10115000983EDCF3869577956795B795F7959F5FF1
:10116000C9F7880F911D9695879597F90895E1E045
:10117000660F771F881FBB1F621773078407BA07A4
:1011800020F0621B730B840BBA0BEE1F88F7E095FF
:10119000089504D06894B1119CC008957FD088F060
:1011A0009F5790F0B92F9927B751A0F0D1F0660F53
:1011B000771F881F991F1AF0BA95C9F712C0B1306E
:1011C00081F086D0B1E0089583C0672F782F8827FB
:1011D000B85F39F0B93FCCF3869577956795B395AD
:1011E000D9F73EF490958095709561957F4F8F4F1C
:1011F0009F4F0895990F0008550FAA0BE0E8FEEFE6
:1012000016161706E807F907C0F012161306E407CA
:10121000F50798F0621B730B840B950B39F40A26C3
:1012200061F0232B242B252B21F408950A2609F4A1
:10123000A140A6958FEF811D811D089597F99F67A5
:1012400080E870E060E008959FEF80EC089500244E
:101250000A941616170618060906089500240A941B
:1012600012161306140605060895092E0394000CA1
:1012700011F4882352F0BB0F40F4BF2B11F460FF30
:1012800004C06F5F7F4F8F4F9F4F089557FD905859
:10129000440F551F59F05F3F71F04795880F97FB3A
:1012A000991F61F09F3F79F08795089512161306F4
:1012B0001406551FF2CF4695F1DF08C01616170623
:1012C0001806991FF1CF8695710561050894089558
:1012D000E894BB2766277727CB0197F908958ADF23
:1012E00008F48FEF08950BD0C0CFB1DF28F0B6DF40
:1012F00018F0952309F0A2CFA7CF1124EACFC6DFBB
:10130000A0F3959FD1F3950F50E0551F629FF00118
:10131000729FBB27F00DB11D639FAA27F00DB11D71
:10132000AA1F649F6627B00DA11D661F829F2227FA
:10133000B00DA11D621F739FB00DA11D621F839F81
:10134000A00D611D221F749F3327A00D611D231F57
:10135000849F600D211D822F762F6A2F11249F57A5
:1013600050408AF0E1F088234AF0EE0FFF1FBB1FC8
:10137000661F771F881F91505040A9F79E3F510567
:1013800070F05CCFA6CF5F3FECF3983EDCF3869520
:1013900077956795B795F795E7959F5FC1F7FE2B12
:1013A000880F911D9695879597F90895AA1BBB1BE9
:1013B00051E107C0AA1FBB1FA617B70710F0A61B55
:1013C000B70B881F991F5A95A9F780959095BC0176
:1013D000CD010895EE0FFF1F0024001C0BBE0790E7
:0A13E000F691E02D0994F894FFCF78
:1013EA0008010601020001010B0A120110010200A4
:1013FA00010109082A011A0110000C0C0202020C50
:10140A00060202020C060202020C00040302010791
:10141A00040302010704030203010000C44300009D
:10142A00DC4333F3F64333D3024433D3124433D386
:10143A00244400003944000044440080BB440000B6
:10144A00FA44000048420000C8421C0F1C00000079
:10145A000000060F0F0F06000000000E000000003B
:10146A000000000E000000000000040E040000004E
:10147A0000000002010000000000000000100B073D
:10148A0007070000000000000A1B0002010000001C
:10149A00000004020000000000000000000000003C
:1014AA00100800000000020100000000080400000B
:1014BA000000001000000000000001000000000011
:1014CA0000000000000000000000040E04000000FC
:1014DA00000000040E04000000000000040E0400D6
:1014EA000000000000040E04000000000000040ECA
:1014FA0004000000000000040E04000000000000C8
:10150A0000000000000000000000000E00000000C3
:10151A00000000000E00000000000000000E0000A5
:10152A000000000000000E00000000000000000E95
:10153A0000000000000000000E0000000000000093
:10154A0000000000000000000000060F0F0F060058
:10155A00000000060F0F0F0600000000060F0F0F15
:10156A000600000000060F0F0F0600000000000032
:10157A000000000000000000000000000000000061
:10158A00000000000000000000001C0F1C0000000A
:10159A000000001C0F1C0000000000001C0F1C00B3
:1015AA0000000000001C0F1C0000000000001C0FBF
:1015BA001C0000000000001C0F1C000000000000BE
:1015CA0000000000000000000000510388037D03B2
:1015DA00670372035C0346032020205472656E631E
:1015EA00682052756E202020202050726573732067
:1015FA0020535441525400596F75204C6F73652122
:10160A002020202020202053636F72653A00596FF2
:10161A00752057696E212020202020202020536326
:06162A006F72653A00003A
:00000001FF
