S014000046696E616C50726F6A6563742E737265634F
S113000045C0000060C000005EC000005CC000008D
S11300105AC0000058C0000056C0000054C0000080
S113002052C0000050C000004EC000004CC0000090
S11300304AC00000C5C4000046C0000044C000001F
S113004042C0000040C000003EC000003CC00000B0
S11300503AC0000038C0000036C0000034C00000C0
S113006032C0000030C000002EC000002CC00000D0
S11300702AC0000028C0000026C0000024C00000E0
S113008022C0000020C000001EC0000011241FBEBA
S1130090CFEFD0E4DEBFCDBF12E0A0E0B1E0E6E8F0
S11300A0FAE000E00BBF02C007900D92AC38B10734
S11300B0D9F723E0ACE8B2E001C01D92A631B20743
S11300C0E1F779D2DEC49CCF20E030E0281739076D
S11300D04CF44EE056E0000041505109E1F72F5F27
S11300E03F4FF4CF08955E9888B95F9A00005F98F7
S11300F082E090E0E9CF81E0F6CF813110F48158BD
S113010001C08155F0CF84E690E0DEDF88E3EBDFC9
S113011086E0E9DF8FE0E7DF81E0E5DF8AE090E079
S1130120D3CF5E9A88B95F9A00005F9881E090E02F
S1130130CBCFCF93DF93019709F040C0C4ECD2E05A
S11301408E8181110EC080910C0383FF03C061E096
S113015070E004C082FF2CC06FEF7FEFCE0184D328
S113016027C09D81911124C09C81913009F5833071
S1130170A1F028F4813069F0823091F019C0853003
S113018041F0B0F08830A0F48091C302837081F410
S113019004C08091C30280FD0BC06FEF7FEF06C0E7
S11301A08091C30280FD04C061E070E0CE0197D36A
S11301B0299683E0CC30D80709F0C2CF8091C302DE
S11301C0873010F48F5F01C080E08093C30281E028
S11301D090E0DF91CF910895DF92EF92FF920F9319
S11301E01F93CF93DF93892B31F584ECE82E82E0C3
S11301F0F82EC0E0D0E099E0D92EF7018481813057
S113020089F4DC9EF001DD9EF00D1124EC53FD4FCA
S113021000811181228133814481558166817781F6
S113022080858BD32196F9E0EF0EF11CC830D105FF
S113023021F780E062DF80E090E0DF91CF911F91B1
S11302400F91FF90EF90DF900895EAE7F0E080814E
S1130250806E80830895282F809178009091790092
S113026070E0621B71096F5F7F4FF7D3820F0895AF
S11302706115710591F09C0140E050E0F901E89F9F
S11302809001E99F300DF89F300D11244F5F5F4FAF
S11302906417750799F7C901089581E090E00895FE
S11302A0CF93DF93EC0182B1817082B96091000138
S11302B070E082E090E0DCDF22B101978E7F992725
S11302C0822B82B98BB1887F8BB96091000170E079
S11302D082E090E0CDDF2BB10197892F8770282B26
S11302E02BB9CD2B09F070C08091780090917900E2
S11302F065E070E0B2D3019701F58091D1028111DC
S11303001CC081E08093D10280E18093CD021092E1
S1130310CE026091D00280E09EDF8093CF022091D4
S1130320D4023091D5026091D302A90178E0879F6D
S1130330400D511D1124CA0131D280910C0390E06B
S1130340880F892F881F990B892B49F18091DA0234
S1130350811125C080910001882309F181E08093F7
S1130360DA0284E08093D6028091C5028093D7029A
S11303709091C6029093D8022091DD023091DE0262
S11303806091DC02A90178E0979F400D511D112472
S1130390CA0104D2809100018150809300018091B0
S11303A078009091790065E070E057D3029761F48A
S11303B08091FE02811108C081E08093FE0290E1E9
S11303C09093FA028093FB0280E090E0DF91CF915A
S11303D00895CF93DF93299881E090E075DE299A00
S11303E081E090E071DE2998D8E0C0E0CC0F189B42
S11303F0C1602A9881E090E067DE2A9A81E090E06B
S113040063DE2A98D15091F78C2FDF91CF91089514
S1130410892B19F4DEDF80930C0380E090E00895CB
S11304200F931F93CF93DF93CDB7DEB729970FB602
S1130430F894DEBF0FBECDBF4D83888999896230A1
S113044059F4081748F0882339F0191314C09E8909
S1130450992379F081E010C008130DC019130BC063
S11304608D81813041F48C89813029F4011104C0DB
S113047002C00817A9F380E029960FB6F894DEBFEE
S11304800FBECDBFDF91CF911F910F910895CF93F0
S1130490DF93EC019981888120E1929F800D1124E2
S11304A02CDE80E23EDE80E028DE18821C82DF91B2
S11304B0CF9108956F927F928F929F92AF92BF9245
S11304C0CF92DF92EF92FF920F931F93CF93DF931C
S11304D0892B09F05FC094EC692E92E0792EE12C0F
S11304E0F12C29E0B22EAE2C84EC882E82E0982EDA
S11304F0C12CD12CBE9CE001BF9CD00D1124CC5347
S1130500DD4FAC1489F1BC9CF001BD9CF00D1124AD
S1130510EC53FD4F2DB73EB7295031090FB6F8946F
S11305203EBF0FBE2DBFADB7BEB711968B2D019048
S11305300D928A95E1F7088119812A813B814C81CA
S11305405D816E817F8188856BDF2DB73EB7275F24
S11305503F4F0FB6F8943EBF0FBE2DBF813021F43C
S1130560C30195DFC40193DF3FEFC31AD30A89E0C7
S1130570880E911C98E0C916D10409F0C2CF2FEF60
S1130580E21AF20A39E0630E711C88E0E816F104FD
S113059009F0A9CF80E090E0DF91CF911F910F91F6
S11305A0FF90EF90DF90CF90BF90AF909F908F908F
S11305B07F906F900895CF93DF93CDB7DEB72A97DE
S11305C00FB6F894DEBF0FBECDBF8EEF81B986E4BF
S11305D084B915B81FEF17B918B81AB91BB835DEA6
S11305E080E885BF85BF8AE0E1E8F2E0DE0111968C
S11305F001900D928A95E1F71093B80282E390E09E
S1130600A0E0B0E08093B9029093BA02A093BB0239
S1130610B093BC028093BD029093BE02A093BF022C
S1130620B093C00228E032E03093C2022093C102AA
S11306301093AD028093AE029093AF02A093B002E8
S1130640B093B1028093B2029093B302A093B40228
S1130650B093B50229E930E03093B7022093B60293
S11306601093A20244E650E060E070E04093A302DD
S11306705093A4026093A5027093A6024093A7022C
S11306805093A8026093A9027093AA022CEE30E062
S11306903093AC022093AB021093970240939802DC
S11306A05093990260939A0270939B0240939C0228
S11306B050939D0260939E0270939F0220E531E067
S11306C03093A1022093A00210938C0280938D0298
S11306D090938E02A0938F02B09390028093910224
S11306E090939202A0939302B09394028AE592E0CD
S11306F0909396028093950262E370E080E090E02C
S11307009BD13AD100DDF7DC68E081E091E05ED076
S113071084EC92E070D06E018BE0C80ED11CDE0137
S113072011967D01F701019111917F01D801159670
S11307304D915D916D917C91189711968D919D913C
S11307400D90BC91A02D481759076A077B0780F0CC
S1130750F80180810184F285E02D082E000C990BAC
S11307600995D8018C93F801158216821782108698
S1130770F80185819681A781B085C296A11DB11D1E
S113078085839683A783B087EC14FD0459F6809182
S113079015038823E1F310921503C1CF0F931F9320
S11307A0CF93DF938C01862F880F880F880F805C8E
S11307B09ADCE801085F1F4F8991B3DCC017D107A9
S11307C0D9F7DF91CF911F910F9108950F931F9344
S11307D0CF93DF93D62F8C01C0E0CD1739F06C2F67
S11307E0C801DCDFCF5F085F1F4FF7CFDF91CF91E8
S11307F01F910F910895FC0123E0208391E09183E0
S1130800128285E083839483168241E452E0508708
S113081047832487978741E052E0518B408B30E136
S113082031879587858B32E0308F41EC51E0528FD0
S1130830418F868F21A353A342A32FE0238F978F49
S113084087A394E092A721E831E034A723A796E098
S113085090AB83AB21E431E035AB24AB94AFEB5BDD
S1130860FF4F87E080830895CF93DF93EC018A8163
S11308706F3F3FEF7307A1F06130710511F58823D5
S113088011F0815011C089818130D9F48B818A8320
S11308908881805F32DC80E244DC8981815010C031
S11308A09B81891718F48F5F8A830BC0898181111A
S11308B008C01A82888121DC80E233DC89818F5F61
S11308C089832A818F8198856E8138E0239F800DEA
S11308D0911D112463DF80E0DF91CF910ECCCF9383
S11308E0DF93EC016F3F2FEF720721F06130710548
S11308F091F01FC09981888120E1929F800D11247D
S1130900FCDB80E20EDC8881823010F0815010C064
S113091018821C820EC09981888120E1929F800DEB
S11309201124EBDB80E2FDDB8881803188F78F5F67
S1130930888380E0DF91CF91E0CB0F931F93CF9317
S1130940DF93CDB7DEB729970FB6F894DEBF0FBE9D
S1130950CDBF6F83802F90E1199F800D1124CDDBD3
S11309608F8129960FB6F894DEBF0FBECDBFDF91FD
S1130970CF911F910F91D5CB8BE0809381008DE7B0
S113098090E0909389008093880082E080936F00C8
S113099010928500109284008091110390911203AB
S11309A0A0911303B091140380930D0390930E034D
S11309B0A0930F03B09310038FB780688FBF08957F
S11309C01F920F920FB60F9211248F939F93AF93A0
S11309D0BF9380910D0390910E03A0910F03B091EA
S11309E010030197A109B10980930D0390930E039D
S11309F0A0930F03B0931003892B8A2B8B2B99F4AC
S1130A0081E0809315038091110390911203A091CA
S1130A101303B091140380930D0390930E03A093DA
S1130A200F03B0931003BF91AF919F918F910F90DB
S1130A300FBE0F901F9018956093110370931203CB
S1130A40809313039093140360930D0370930E0328
S1130A5080930F03909310030895AA1BBB1B51E1CD
S1130A6007C0AA1FBB1FA617B70710F0A61BB70B1A
S1130A70881F991F5A95A9F780959095BC01CD01BF
S1090A800895F894FFCF75
S1130A860A1C0F1C0000000000060F0F0F060000D2
S1130A9600000E000000000000000E000000000030
S1130AA600040E0400000000000002010000000023
S1130AB600000000100B0707070000000000000AF2
S1130AC61B000201000000000004020000000000F8
S1130AD600000000000000100800000000020100F1
S1130AE600000008040000000000100000000000E0
S1130AF600010000000000000000000000000000EB
S1130B0600040E04000000000000040E04000000AF
S1130B16000000040E04000000000000040E04009F
S1130B260000000000040E04000000000000040E93
S1130B3604000000000000000000000000000000A7
S1130B4600000E00000000000000000E000000007F
S1130B56000000000E00000000000000000E00006F
S1130B660000000000000E00000000000000000E5F
S1130B76000000000000000000000000000000006B
S1130B8600060F0F0F0600000000060F0F0F0600E9
S1130B96000000060F0F0F0600000000060F0F0FDF
S1130BA60600000000000000000000000000000035
S1130BB6000000000000000000000000000000002B
S1130BC6001C0F1C0000000000001C0F1C0000008D
S1130BD60000001C0F1C0000000000001C0F1C007D
S1130BE600000000001C0F1C0000000000001C0F89
S1130BF61C000000000000000000000000000000CF
S10F0C0600B802AD029702A2028C0200AA
S9030000FC
