:1000000045C0000060C000005EC000005CC0000091
:100010005AC0000058C0000056C0000054C0000084
:1000200052C0000050C000004EC000004CC0000094
:100030004AC000009DC3000046C0000044C000004C
:1000400042C0000040C000003EC000003CC00000B4
:100050003AC0000038C0000036C0000034C00000C4
:1000600032C0000030C000002EC000002CC00000D4
:100070002AC0000028C0000026C0000024C00000E4
:1000800022C0000020C000001EC0000011241FBEBE
:10009000CFEFD0E4DEBFCDBF12E0A0E0B1E0E6E3F9
:1000A000F8E000E00BBF02C007900D92A838B1073E
:1000B000D9F723E0A8E8B2E001C01D92A730B2074B
:1000C000E1F76AD1B6C39CCF20E030E028173907AA
:1000D0004CF44EE056E0000041505109E1F72F5F2B
:1000E0003F4FF4CF08955E9888B95F9A00005F98FB
:1000F00082E090E0E9CF81E0F6CF813110F48158C1
:1001000001C08155F0CF84E690E0DEDF88E3EBDFCD
:1001100086E0E9DF8FE0E7DF81E0E5DF8AE090E07D
:10012000D3CF5E9A88B95F9A00005F9881E090E033
:10013000CBCFCF93DF93019709F040C0C5EBD2E05E
:100140008E8181110EC08091FD0283FF03C061E0AA
:1001500070E004C082FF2CC06FEF7FEFCE015CD255
:1001600027C09D81911124C09C81913009F5833075
:10017000A1F028F4813069F0823091F019C0853007
:1001800041F0B0F08830A0F48091B402837081F423
:1001900004C08091B40280FD0BC06FEF7FEF06C0FA
:1001A0008091B40280FD04C061E070E0CE016FD2A6
:1001B000299682E0CD3FD80709F0C2CF8091B402E2
:1001C000873010F48F5F01C080E08093B40281E03B
:1001D00090E0DF91CF910895DF92EF92FF920F931D
:1001E0001F93CF93DF93892B31F585EBE82E82E0C7
:1001F000F82EC0E0D0E099E0D92EF701848181305B
:1002000089F4DC9EF001DD9EF00D1124EB54FD4FCE
:1002100000811181228133814481558166817781FA
:10022000808563D22196F9E0EF0EF11CC830D1052C
:1002300021F780E062DF80E090E0DF91CF911F91B5
:100240000F91FF90EF90DF900895EAE7F0E0808152
:10025000806E80830895282F809178009091790096
:1002600070E0621B71096F5F7F4FCFD2820F0895DC
:10027000892B09F067C0809178009091790066E041
:1002800070E0C3D2813001F58091C20281111CC09F
:1002900081E08093C20280E18093BE021092BF028F
:1002A0006091C10280E0D7DF8093C0022091C50237
:1002B0003091C6026091C402A90178E0879F400D89
:1002C000511D1124CA0142D18091FD0290E0880F96
:1002D000892F881F990B892B01F18091CB02811105
:1002E0001CC081E08093CB0283E08093C7028091A1
:1002F000B6028093C8029091B7029093C9022091F0
:10030000CE023091CF026091CD02A90178E0979F93
:10031000400D511D1124CA0119D18091780090918E
:10032000790066E070E071D2823061F48091EF0272
:10033000811108C081E08093EF0290E19093EB027D
:100340008093EC0280E090E00895CF93DF932998AA
:1003500081E090E0B9DE299A81E090E0B5DE29984D
:10036000D8E0C0E0CC0F189BC1602A9881E090E0F3
:10037000ABDE2A9A81E090E0A7DE2A98D15091F76F
:100380008C2FDF91CF910895892B19F4DEDF8093B4
:10039000FD0280E090E00895CF93DF93CDB7DEB704
:1003A00028970FB6F894DEBF0FBECDBF11B886E414
:1003B00084B915B81FEF17B918B81AB91BB845DFBB
:1003C00080E885BF85BF88E0E0E8F2E0DE011196B5
:1003D00001900D928A95E1F71093A90282E390E0D3
:1003E000A0E0B0E08093AA029093AB02A093AC028D
:1003F000B093AD028093AE029093AF02A093B0028F
:10040000B093B10224EC31E03093B3022093B202F6
:1004100010939E0280939F029093A002A093A1024A
:10042000B093A2028093A3029093A402A093A5028A
:10043000B093A60289E990E09093A8028093A70266
:100440001093930284E690E0A0E0B0E080939402E1
:1004500090939502A0939602B0939702809398028E
:1004600090939902A0939A02B0939B022CEE30E0F5
:1004700030939D0220939C021093880280938902FE
:1004800090938A02A0938B02B0938C0280938D028A
:1004900090938E02A0938F02B093900288E391E034
:1004A000909392028093910262E370E080E090E08A
:1004B0009BD13AD128DE1FDE68E080E091E05ED07B
:1004C00085EB92E070D06E0189E0C80ED11CDE0190
:1004D00011967D01F701019111917F01D8011596C7
:1004E0004D915D916D917C91189711968D919D9193
:1004F0000D90BC91A02D481759076A077B0780F023
:10050000F80180810184F285E02D082E000C990B02
:100510000995D8018C93F8011582168217821086EE
:10052000F80185819681A781B085C296A11DB11D74
:1005300085839683A783B087EC14FD0459F68091D8
:1005400006038823E1F310920603C1CF0F931F9394
:10055000CF93DF938C01862F880F880F880F805CE4
:10056000C2DDE801085F1F4F8991DBDDC017D107AD
:10057000D9F7DF91CF911F910F9108950F931F939A
:10058000CF93DF93D62F8C01C0E0CD1739F06C2FBD
:10059000C801DCDFCF5F085F1F4FF7CFDF91CF913E
:1005A0001F910F910895FC0123E0208391E0918336
:1005B000128285E083839483168240E452E0508760
:1005C00047832487978740E052E0518B408B30E18E
:1005D00031879587858B32E0308F40EC51E0528F28
:1005E000418F868F21A353A342A32FE0238F978FA0
:1005F00087A394E092A720E831E034A723A796E0F0
:1006000090AB83AB20E431E035AB24AB94AFEB5B34
:10061000FF4F87E080830895CF93DF93EC018A81B9
:100620006F3F3FEF7307A1F06130710511F588232B
:1006300011F0815011C089818130D9F48B818A8376
:100640008881805F5ADD80E26CDD8981815010C035
:100650009B81891718F48F5F8A830BC08981811170
:1006600008C01A82888149DD80E25BDD89818F5F65
:1006700089832A818F8198856E8138E0239F800D40
:10068000911D112463DF80E0DF91CF9136CDCF93B0
:10069000DF93EC016F3F2FEF720721F0613071059E
:1006A00091F01FC09981888120E1929F800D1124D3
:1006B00024DD80E236DD8881823010F0815010C068
:1006C00018821C820EC09981888120E1929F800D42
:1006D000112413DD80E225DD8881803188F78F5F6A
:1006E000888380E0DF91CF9108CD0F931F93CF9344
:1006F000DF93CDB7DEB729970FB6F894DEBF0FBEF4
:10070000CDBF6F83802F90E1199F800D1124F5DC00
:100710008F8129960FB6F894DEBF0FBECDBFDF9153
:10072000CF911F910F91FDCC8BE0809381008DE7DD
:1007300090E0909389008093880082E080936F001E
:10074000109285001092840080910203909103031F
:10075000A0910403B09105038093FE029093FF02E1
:10076000A0930003B09301038FB780688FBF0895F3
:100770001F920F920FB60F9211248F939F93AF93F6
:10078000BF938091FE029091FF02A0910003B0916F
:1007900001030197A109B1098093FE029093FF0222
:1007A000A0930003B0930103892B8A2B8B2B99F420
:1007B00081E0809306038091020390910303A0914E
:1007C0000403B09105038093FE029093FF02A0936F
:1007D0000003B0930103BF91AF919F918F910F9050
:1007E0000FBE0F901F901895609302037093030340
:1007F00080930403909305036093FE027093FF02BD
:1008000080930003909301030895AA1BBB1B51E141
:1008100007C0AA1FBB1FA617B70710F0A61BB70B70
:10082000881F991F5A95A9F780959095BC01CD0115
:060830000895F894FFCFCB
:100836001C0F1C0000000000060F0F0F0600000032
:10084600000E000000000000000E00000000000086
:10085600040E040000000000000201000000000079
:10086600000000100B0707070000000000000A1B2D
:100876000002010000000000040200000000000069
:100886000000000000001008000000000201000047
:100896000000080400000000001000000000000036
:1008A6000100000000000000000000000000000041
:1008B600040E04000000000000040E040000000006
:1008C6000000040E04000000000000040E040000F6
:1008D60000000000040E04000000000000040E04E6
:1008E6000000000000000000000000000000000002
:1008F600000E00000000000000000E0000000000D6
:100906000000000E00000000000000000E000000C5
:1009160000000000000E00000000000000000E00B5
:1009260000000000000000000000000000000000C1
:10093600060F0F0F0600000000060F0F0F0600003F
:100946000000060F0F0F0600000000060F0F0F062F
:100956000000000000000000000000000000000091
:100966000000000000000000000000000000000081
:100976001C0F1C0000000000001C0F1C00000000E3
:1009860000001C0F1C0000000000001C0F1C0000D3
:10099600000000001C0F1C0000000000001C0F1CC3
:1009A6000000000000000000000000000000000041
:0809B600A9029E0293028802CF
:00000001FF
