:1000000045C0000060C000005EC000005CC0000091
:100010005AC0000058C0000056C0000054C0000084
:1000200052C0000050C000004EC000004CC0000094
:100030004AC0000001C3000046C0000044C00000E8
:1000400042C0000040C000003EC000003CC00000B4
:100050003AC0000038C0000036C0000034C00000C4
:1000600032C0000030C000002EC000002CC00000D4
:100070002AC0000028C0000026C0000024C00000E4
:1000800022C0000020C000001EC0000011241FBEBE
:10009000CFEFD0E4DEBFCDBF12E0A0E0B1E0E6EDEF
:1000A000F6E000E00BBF02C007900D92A638B10742
:1000B000D9F722E0A6E8B2E001C01D92AA3FB2073C
:1000C000E1F7E9D006C39CCF20E030E028173907DC
:1000D0004CF44EE056E0000041505109E1F72F5F2B
:1000E0003F4FF4CF08955E9888B95F9A00005F98FB
:1000F00082E090E0E9CF81E0F6CF813110F48158C1
:1001000001C08155F0CF84E690E0DEDF88E3EBDFCD
:1001100086E0E9DF8FE0E7DF81E0E5DF8AE090E07D
:10012000D3CF5E9A88B95F9A00005F9881E090E033
:10013000CBCFCF93DF930197D1F5C8EAD2E08E8180
:1001400081110EC08091F00283FF03C061E070E076
:1001500004C082FF27C06FEF7FEFCE01C1D122C064
:100160009D8191111FC09C819130E1F48330B1F0E9
:1001700038F4813079F08230A9F461E070E010C089
:10018000853041F078F0883068F48091A702837060
:1001900049F404C08091A70280FD04C06FEF7FEF97
:1001A000CE01D9D1299682E0C03FD80741F680918F
:1001B000A702873010F48F5F01C080E08093A70210
:1001C00081E090E0DF91CF910895DF92EF92FF926E
:1001D0000F931F93CF93DF93892B31F588EAE82E95
:1001E00082E0F82EC0E0D0E099E0D92EF7018481BA
:1001F000813089F4DC9EF001DD9EF00D1124E8557C
:10020000FD4F0081118122813381448155816681B6
:1002100077818085CED12196F9E0EF0EF11CC830B0
:10022000D10521F780E069DF80E090E0DF91CF9198
:100230001F910F91FF90EF90DF900895EAE7F0E0B3
:100240008081806E80830895CF93DF93299881E029
:1002500090E03ADF299A81E090E036DF2998D8E0F3
:10026000C0E0CC0F189BC1602A9881E090E02CDFA1
:100270002A9A81E090E028DF2A98D15091F78C2FBC
:10028000DF91CF910895892B19F4DEDF8093F0027E
:1002900080E090E00895CF93DF9300D000D000D0AD
:1002A000CDB7DEB711B886E484B915B81FEF17B91A
:1002B00018B81AB91BB8C2DF80E885BF85BF86E0D1
:1002C000E0E8F2E0DE01119601900D928A95E1F7E7
:1002D00010939C0282E390E0A0E0B0E080939D0246
:1002E00090939E02A0939F02B093A0028093A102DC
:1002F0009093A202A093A302B093A40223E431E05E
:100300003093A6022093A50210939102809392024B
:1003100090939302A0939402B093950280939602D7
:1003200090939702A0939802B093990289E990E084
:1003300090939B0280939A021093860284E690E049
:10034000A0E0B0E08093870290938802A093890296
:10035000B0938A0280938B0290938C02A0938D02BB
:10036000B0938E0285EE90E09093900280938F027E
:1003700062E370E080E090E09BD13AD1C4DEBBDE66
:1003800068E080E091E05ED088EA92E070D06E0193
:1003900087E0C80ED11CDE0111967D01F7010191A5
:1003A00011917F01D80115964D915D916D917C91D0
:1003B000189711968D919D910D90BC91A02D481785
:1003C00059076A077B0780F0F80180810184F28574
:1003D000E02D082E000C990B0995D8018C93F8019B
:1003E0001582168217821086F80185819681A78171
:1003F000B085C296A11DB11D85839683A783B08762
:10040000EC14FD0459F68091F9028823E1F310926F
:10041000F902C1CF0F931F93CF93DF938C01862FE7
:10042000880F880F880F805C5EDEE801085F1F4F31
:10043000899177DEC017D107D9F7DF91CF911F914E
:100440000F9108950F931F93CF93DF93D62F8C01B5
:10045000C0E0CD1739F06C2FC801DCDFCF5F085F3B
:100460001F4FF7CFDF91CF911F910F910895FC019E
:1004700023E0208391E09183128285E0838394833B
:10048000168240E452E0508747832487978740E0F4
:1004900052E0518B408B30E131879587858B32E07C
:1004A000308F40EC51E0528F418F868F21A353A3B0
:1004B00042A32FE0238F978F87A394E092A720E891
:1004C00031E034A723A796E090AB83AB20E431E082
:1004D00035AB24AB94AFEB5BFF4F87E0808308958F
:1004E000CF93DF93EC018A816F3F3FEF7307A1F059
:1004F0006130710511F5882311F0815011C0898197
:100500008130D9F48B818A838881805FF6DD80E237
:1005100008DE8981815010C09B81891718F48F5F94
:100520008A830BC08981811108C01A828881E5DD28
:1005300080E2F7DD89818F5F89832A818F819885A9
:100540006E8138E0239F800D911D112463DF80E0D0
:10055000DF91CF91D2CDCF93DF93EC016F3F2FEF9F
:10056000720721F06130710591F01FC09981888177
:1005700020E1929F800D1124C0DD80E2D2DD8881D0
:10058000823010F0815010C018821C820EC09981F8
:10059000888120E1929F800D1124AFDD80E2C1DDD2
:1005A0008881813188F78F5F888380E0DF91CF91E8
:1005B000A4CD0F931F93CF93DF93CDB7DEB72997C9
:1005C0000FB6F894DEBF0FBECDBF6F83802F90E1D2
:1005D000199F800D112491DD8F8129960FB6F89413
:1005E000DEBF0FBECDBFDF91CF911F910F9199CD8F
:1005F0008BE0809381008DE790E090938900809359
:10060000880082E080936F00109285001092840031
:100610008091F5029091F602A091F702B091F80254
:100620008093F1029093F202A093F302B093F4024C
:100630008FB780688FBF08951F920F920FB60F92E9
:1006400011248F939F93AF93BF938091F102909168
:10065000F202A091F302B091F4020197A109B1094D
:100660008093F1029093F202A093F302B093F4020C
:10067000892B8A2B8B2B99F481E08093F90280914E
:10068000F5029091F602A091F702B091F8028093E2
:10069000F1029093F202A093F302B093F402BF919F
:1006A000AF919F918F910F900FBE0F901F90189553
:1006B0006093F5027093F6028093F7029093F8022C
:1006C0006093F1027093F2028093F3029093F4022C
:0606D0000895F894FFCF2D
:1006D6001C0F1C0000000000060F0F0F0600000094
:1006E600000E000000000000000E000000000000E8
:1006F600040E0400000000000002010000000000DB
:10070600000000100B0707070000000000000A1B8E
:1007160000020100000000000402000000000000CA
:1007260000000000000010080000000002010000A8
:100736000000080400000000001000000000000097
:1007460001000000000000000000000000000000A2
:10075600040E04000000000000040E040000000067
:100766000000040E04000000000000040E04000057
:1007760000000000040E04000000000000040E0447
:100786000000000000000000000000000000000063
:10079600000E00000000000000000E000000000037
:1007A6000000000E00000000000000000E00000027
:1007B60000000000000E00000000000000000E0017
:1007C6000000000000000000000000000000000023
:1007D600060F0F0F0600000000060F0F0F060000A1
:1007E6000000060F0F0F0600000000060F0F0F0691
:1007F60000000000000000000000000000000000F3
:1008060000000000000000000000000000000000E2
:100816001C0F1C0000000000001C0F1C0000000044
:1008260000001C0F1C0000000000001C0F1C000034
:10083600000000001C0F1C0000000000001C0F1C24
:1008460000000000000000000000000000000000A2
:060856009C0291028602E3
:00000001FF
