:1000000045C0000061C000005FC000005DC000008E
:100010005BC0000059C0000057C0000055C0000080
:1000200053C0000051C000004FC000004DC0000090
:100030004BC0000088C7000047C0000045C000005A
:1000400043C0000041C000003FC000003DC00000B0
:100050003BC0000039C0000037C0000035C00000C0
:1000600033C0000031C000002FC000002DC00000D0
:100070002BC0000029C0000027C0000025C00000E0
:1000800023C0000021C000001FC0000011241FBEBB
:10009000CFEFD0E4DEBFCDBF13E0A0E0B1E0EEEFE4
:1000A000F2E100E00BBF02C007900D92AE32B10743
:1000B000D9F723E0AEE2B3E001C01D92AE3DB20736
:1000C000E1F788D40C947D099BCF20E030E028171D
:1000D00039074CF44EE056E0000041505109E1F779
:1000E0002F5F3F4FF4CF08955E9888B95F9A000064
:1000F0005F9882E090E0E9CF81E0F6CF813110F4A3
:10010000815801C08155F0CF84E690E0DEDF88E3BE
:10011000EBDF86E0E9DF8FE0E7DF81E0E5DF8AE023
:1001200090E0D3CF5E9A88B95F9A00005F9881E033
:1001300090E0CBCFEF92FF920F931F93CF93DF937B
:10014000182FF62E072FD8DFCF2DD02F7E018881D4
:10015000882351F001E0010F812FD0DF2196F701B4
:100160008081E0DF102FF2CFDF91CF911F910F91AF
:10017000FF90EF900895CF93DF93009731F097FDB4
:1001800067C0833091054CF063C02091CC032130CF
:1001900009F04FC0C0E8D3E00CC02091CC0322305E
:1001A00009F453C0222309F453C08130910591F31F
:1001B00040C08E8181110EC08091D00383FF03C0A7
:1001C00061E070E004C082FF2CC06FEF7FEFCE01D2
:1001D0000ED627C09D81911124C09C81913009F5D4
:1001E0008330A1F028F4813069F0823091F019C099
:1001F000853041F0B0F08830A0F480917F038370A7
:1002000081F404C080917F0380FD0BC06FEF7FEF0E
:1002100006C080917F0380FD04C061E070E0CE01E4
:1002200021D6299683E0C83CD80709F0C2CF81E0E7
:1002300090E020917F03273010F42F5F01C020E071
:1002400020937F03DF91CF91089582E090E0F1CF7A
:1002500080E090E0EECFDF92EF92FF920F931F933A
:10026000CF93DF93009731F097FD3FC08330910526
:1002700074F03BC02091CC032130C9F580E8E82E12
:1002800083E0F82EC0E0D0E099E0D92E0AC020919A
:10029000CC03223039F1222341F18130910571F3F1
:1002A00026C0F7018481813089F4DC9EF001DD9E57
:1002B000F00D1124E058FC4F00811181228133811F
:1002C00044815581668177818085FAD52196F9E050
:1002D000EF0EF11CC830D10521F780E00FDF81E07F
:1002E00090E005C082E090E002C080E090E0DF9105
:1002F000CF911F910F91FF90EF90DF900895EAE763
:10030000F0E08081806E80830895282F80917800AE
:100310009091790070E0621B71096F5F7F4FD9D7B0
:10032000820F0895CF92DF92EF92FF920F931F9367
:10033000CF938C01C62F862FE1DEC80160E177E202
:10034000C8D76C0180E3860FEDDE81E08C0FD6DE2E
:1003500088EEE82E83E0F82EC601B701BAD780E315
:10036000860FE0DE82E08C0FC9DEC801B701B1D78D
:1003700024E6E22EF12CB701ACD780E3860FD2DE63
:1003800083E08C0FBBDEC801B701A3D73AE0E32EB0
:10039000F12CB7019ED780E3860FC4DE84E08C0F7A
:1003A000ADDEC801B70195D7805DCF911F910F9148
:1003B000FF90EF90DF90CF90B5CE6115710591F071
:1003C0009C0140E050E0F901E89F9001E99F300D69
:1003D000F89F300D11244F5F5F4F6417750799F731
:1003E000C901089581E090E00895CF93DF93EC0177
:1003F00082B1817082B96091CF0370E082E090E0B9
:10040000DCDF22B101978E7F9927822B82B98BB1D5
:10041000887F8BB96091CF0370E082E090E0CDDF00
:100420002BB10197892F8770282B2BB9209731F496
:100430002091CC03213009F08EC003C0C0E0D0E091
:100440008AC0809178009091790065E070E041D792
:100450000197F9F480918D0381111BC020938D03C6
:1004600080E18093890310928A0360918C0380E07D
:100470004CDF80938B032091900330919103609126
:100480008F03A90178E0879F400D511D1124CA01F7
:1004900035D48091D00390E0880F892F881F990B65
:1004A000892B79F18091960381112BC08091CF0324
:1004B000882339F181E08093960384E0809392034E
:1004C000809181038093930390918203909394038E
:1004D0002091990330919A0360919803A90178E0E3
:1004E000979F400D511D1124CA0108D48AE091E064
:1004F0009093D4038093D3038091CF038150809352
:10050000CF03809178009091790065E070E0E1D6AA
:10051000029761F48091BA03811108C081E0809351
:10052000BA0390E19093B6038093B7038091D1030F
:100530009091D2038C32914060F08091C30381117D
:1005400008C081E08093C30390E19093BF03809340
:10055000C003C1E0D0E0CE01DF91CF910895CF93E9
:10056000DF93299881E090E0B0DD299A81E090E066
:10057000ACDD2998D8E0C0E0CC0F189BC1602A9868
:1005800081E090E0A2DD2A9A81E090E09EDD2A9849
:10059000D15091F78C2FDF91CF910895892B19F4C9
:1005A000DEDF8093D00380E090E008958AE08093BE
:1005B000CF031092CE031092CD0381E08093CC0341
:1005C0001092D2031092D10308958230910529F13F
:1005D0002CF4009759F0019789F050C083309105B1
:1005E000B9F18430910509F445C048C01092CC039C
:1005F00068EF72E081E09EDD80E080DD8091D003D5
:1006000084FF3FC0D3DF80E893E0A5D381E08093EF
:10061000CC0372DD82E090E008952091D103309107
:10062000D2032F5F3F4F3093D2032093D1034091E9
:100630008403442319F02D36314028F082E0809362
:10064000CC0383E090E02091D00325FF1CC016C0AE
:100650001092CF0351DD67E173E081E06BDD69E16A
:100660008091CD039091CE035DDE80E047DD84E094
:1006700090E008952091D00325FF089580E090E058
:10068000089581E090E008950F931F93CF93DF9337
:10069000CDB7DEB729970FB6F894DEBF0FBECDBF3A
:1006A0004D8388899989623059F4081748F0882366
:1006B00039F0191314C09E89992379F081E010C094
:1006C00008130DC019130BC08D81813041F48C8942
:1006D000813029F4011104C002C00817A9F380E099
:1006E00029960FB6F894DEBF0FBECDBFDF91CF9134
:1006F0001F910F910895CF93DF93EC019981888129
:1007000020E1929F800D1124F9DC80E20BDD80E076
:10071000F5DC8E81813041F0863079F48091CD0313
:100720009091CE030A9605C08091CD039091CE039F
:1007300044969093CE038093CD0318821C82DF9160
:10074000CF9108954F925F926F927F928F929F9276
:10075000AF92BF92CF92DF92EF92FF920F931F93CF
:10076000CF93DF93009731F097FD83C083309105DD
:100770009CF07FC02091CC03213009F07CC090E830
:10078000892E93E0992EE12CF12C29E0522E30E0B5
:10079000632E31E0732E0CC02091CC03223009F47B
:1007A00065C0222309F465C08130910541F363C01F
:1007B0004E2C80E8A82E83E0B82EC12CD12C5E9C54
:1007C000E0015F9CD00D1124C058DC4F4C14A9F1FE
:1007D0005C9CF0015D9CF00D1124E058FC4F2DB79E
:1007E0003EB7295031090FB6F8943EBF0FBE2DBF5A
:1007F000ADB7BEB71196852D01900D928A95E1F7A0
:10080000088119812A813B814C815D816E817F81C4
:1008100088853ADF2DB73EB7275F3F4F0FB6F89474
:100820003EBF0FBE2DBF813041F4C40164DFC5015E
:1008300062DF7092D4036092D3033FEFC31AD30AEE
:1008400089E0A80EB11C98E0C916D10409F0BECF0A
:100850002FEFE21AF20A39E0830E911C88E0E816C5
:10086000F10409F0A5CF81E090E005C082E090E0BE
:1008700002C080E090E0DF91CF911F910F91FF9037
:10088000EF90DF90CF90BF90AF909F908F907F9030
:100890006F905F904F900895E091D303F091D4034F
:1008A000309709F44BC00190F081E02D80917D03D9
:1008B00090917E03E80FF91FE08184E0E89FF0014A
:1008C0001124E65CFE4F6081718182819381A3D106
:1008D00020917B0330917C032F5F3F4F30937C034B
:1008E00020937B03A091D303B091D40380917D0327
:1008F00090917E031296ED91FC911397E80FF91FEA
:10090000408150E02417350749F410927C0310927F
:100910007B03019690937E0380937D0314962D9123
:100920003C91159780917D0390917E0382179307E8
:1009300090F01092D4031092D30305C060E070E6EB
:100940008AEE96E468D110927E0310927D03109295
:100950007C0310927B030895CF93DF93EC019CDF1F
:10096000C130D10589F01CF4CD2B29F02AC0C43048
:10097000D1050CF126C091E080E02091CC0321113B
:1009800090E0C92FD82F22C08091D3039091D40337
:10099000892B31F484E191E09093D4038093D303C5
:1009A0008091CC03813091F41092D4031092D30340
:1009B000C2E0D0E00BC08091CC03823029F08111DD
:1009C00005C0C0E0D0E002C0C3E0D0E0CE01DF91BE
:1009D000CF910895CF93DF93CDB7DEB72E970FB6A3
:1009E000F894DEBF0FBECDBF8EEF81B986E484B927
:1009F00015B81FEF17B918B81AB91BB880DC80E812
:100A000085BF85BF8EE0EAEEF2E0DE01119601902F
:100A10000D928A95E1F71093700382E390E0A0E0D5
:100A2000B0E08093710390937203A0937303B0932B
:100A300074038093750390937603A0937703B09328
:100A400078032EEC32E030937A03209379031093ED
:100A500065038093660390936703A0936803B09344
:100A6000690380936A0390936B03A0936C03B09324
:100A70006D032BEB30E030936F0320936E031093E4
:100A80005A0344E650E060E070E040935B0350930B
:100A90005C0360935D0370935E0340935F03509328
:100AA000600360936103709362032BE231E0309343
:100AB00064032093630310934F03409350035093B8
:100AC0005103609352037093530340935403509324
:100AD0005503609356037093570325EF31E030932D
:100AE0005903209358031093440380934503909334
:100AF0004603A0934703B093480380934903909320
:100B00004A03A0934B03B0934C0322EA33E03093A3
:100B10004E0320934D031093390380933A0390932F
:100B20003B03A0933C03B0933D0380933E0390931B
:100B30003F03A0934003B093410385EE92E090936E
:100B400043038093420310932E0340932F0350934B
:100B50003003609331037093320340933303509317
:100B6000340360933503709336038CEA94E09093DA
:100B700038038093370362E370E080E090E01FD297
:100B8000BED1C2DAB9DA68E08AE691E0CFD0ACD063
:100B90006E018FE0C80ED11CDE0111967D01F701B8
:100BA000019111917F01D80115964D915D916D9143
:100BB0007C91189711968D919D910D90BC91A02DCF
:100BC000481759076A077B0780F0F8018081018484
:100BD000F285E02D082E000C990B0995D8018C9315
:100BE000F8011582168217821086F8018581968198
:100BF000A781B085C296A11DB11D85839683A78369
:100C0000B087EC14FD0459F68091DD038823E1F3ED
:100C10001092DD03C1CFCF92DF92EF92FF926B0172
:100C20007C019B01AC016091C8037091C903809164
:100C3000CA039091CB03D4D1882309F450C020E09B
:100C400030E0A901C701B601CBD1811104C0809168
:100C50009100887003C0809191008360809391001F
:100C600028E539E344E75FE3C701B601B9D187FF5F
:100C700007C08FEF9FEF909399008093980023C057
:100C800020E034E244EF56E4C701B601BBD21816A7
:100C90002CF4109299001092980015C020E030E0DA
:100CA00040E053E4C701B601B1D29B01AC0160E062
:100CB00074E284EF9AE498D1FFD161507109709386
:100CC0009900609398001092950010929400C09241
:100CD000C803D092C903E092CA03F092CB03FF90FD
:100CE000EF90DF90CF90089580E4809390008BE0A8
:100CF0008093910060E070E0CB018DCF0F931F9344
:100D0000CF93DF938C01862F880F880F880F805C2C
:100D1000EBD9E801085F1F4F899104DAC017D107AA
:100D2000D9F7DF91CF911F910F9108950F931F93E2
:100D3000CF93DF93D62F8C01C0E0CD1739F06C2F05
:100D4000C801DCDFCF5F085F1F4FF7CFDF91CF9186
:100D50001F910F910895CF93DF93FC0180E090E005
:100D600029E0DF01A80FB91FED01322F19923A9542
:100D7000E9F7099688349105A1F723E0208391E0F3
:100D80009183128285E08383948316824AEA52E03B
:100D900050874783248797874AE652E0518B408BE0
:100DA00030E131879587858B32E0308F4AE252E01F
:100DB000528F418F868F21A353A342A32FE0238F0D
:100DC000978F87A394E092A72AEE31E034A723A758
:100DD00096E090AB83AB2AEA31E035AB24AB94AF1D
:100DE000EB5BFF4F87E08083DF91CF910895CF9336
:100DF000DF93EC018A816F3F3FEF7307A1F0613011
:100E0000710511F5882311F0815011C0898181305D
:100E1000D9F48B818A838881805F70D980E282D9FE
:100E20008981815010C09B81891718F48F5F8A8354
:100E30000BC08981811108C01A8288815FD980E244
:100E400071D989818F5F89832A818F8198856E818D
:100E500038E0239F800D911D112450DF80E0DF9149
:100E6000CF914CC9CF93DF93EC016F3F2FEF720707
:100E700021F06130710591F01FC09981888120E1D6
:100E8000929F800D11243AD980E24CD9888182301A
:100E900010F0815010C018821C820EC09981888188
:100EA00020E1929F800D112429D980E23BD98881CD
:100EB000803188F78F5F888380E0DF91CF911EC9F2
:100EC0000F931F93CF93DF93CDB7DEB729970FB65C
:100ED000F894DEBF0FBECDBF6F83802F90E1199FC6
:100EE000800D11240BD98F8129960FB6F894DEBF9F
:100EF0000FBECDBFDF91CF911F910F9113C98BE032
:100F0000809381008DE790E0909389008093880022
:100F100082E080936F00109285001092840080918F
:100F2000D9039091DA03A091DB03B091DC038093A5
:100F3000D5039093D603A093D703B093D8038FB76C
:100F400080688FBF08951F920F920FB60F921124E1
:100F50008F939F93AF93BF938091D5039091D603C6
:100F6000A091D703B091D8030197A109B10980934B
:100F7000D5039093D603A093D703B093D803892BBE
:100F80008A2B8B2B99F481E08093DD038091D90328
:100F90009091DA03A091DB03B091DC038093D50339
:100FA0009093D603A093D703B093D803BF91AF918A
:100FB0009F918F910F900FBE0F901F901895609387
:100FC000D9037093DA038093DB039093DC0360937F
:100FD000D5037093D6038093D7039093D8030895D5
:100FE0009CD008F481E008950CD0D2C0CAD040F063
:100FF000C1D030F021F45F3F19F0B3C05111FCC0F3
:10100000B6C0D7D098F39923C9F35523B1F3951BF4
:10101000550BBB27AA2762177307840738F09F5F19
:101020005F4F220F331F441FAA1FA9F333D00E2E88
:101030003AF0E0E830D091505040E695001CCAF7F5
:1010400029D0FE2F27D0660F771F881FBB1F2617BA
:1010500037074807AB07B0E809F0BB0B802DBF018D
:10106000FF2793585F4F2AF09E3F510568F079C0E3
:10107000C3C05F3FECF3983EDCF3869577956795A8
:10108000B795F7959F5FC9F7880F911D969587953E
:1010900097F90895E1E0660F771F881FBB1F62175D
:1010A00073078407BA0720F0621B730B840BBA0B1B
:1010B000EE1F88F7E095089504D06894B1119CC0A4
:1010C00008957FD088F09F5790F0B92F9927B75196
:1010D000A0F0D1F0660F771F881F991F1AF0BA95FC
:1010E000C9F712C0B13081F086D0B1E0089583C055
:1010F000672F782F8827B85F39F0B93FCCF38695F2
:1011000077956795B395D9F73EF49095809570954E
:1011100061957F4F8F4F9F4F0895990F0008550F8E
:10112000AA0BE0E8FEEF16161706E807F907C0F06D
:1011300012161306E407F50798F0621B730B840B75
:10114000950B39F40A2661F0232B242B252B21F44F
:1011500008950A2609F4A140A6958FEF811D811DEF
:10116000089597F99F6780E870E060E008959FEF29
:1011700080EC089500240A9416161706180609062E
:10118000089500240A9412161306140605060895FD
:10119000092E0394000C11F4882352F0BB0F40F485
:1011A000BF2B11F460FF04C06F5F7F4F8F4F9F4FC5
:1011B000089557FD9058440F551F59F05F3F71F047
:1011C0004795880F97FB991F61F09F3F79F08795AE
:1011D0000895121613061406551FF2CF4695F1DF37
:1011E00008C0161617061806991FF1CF86957105C7
:1011F000610508940895E894BB2766277727CB01FB
:1012000097F908958ADF08F48FEF08950BD0C0CFC7
:10121000B1DF28F0B6DF18F0952309F0A2CFA7CFF1
:101220001124EACFC6DFA0F3959FD1F3950F50E0CC
:10123000551F629FF001729FBB27F00DB11D639F88
:10124000AA27F00DB11DAA1F649F6627B00DA11D2E
:10125000661F829F2227B00DA11D621F739FB00DD4
:10126000A11D621F839FA00D611D221F749F332744
:10127000A00D611D231F849F600D211D822F762FDD
:101280006A2F11249F5750408AF0E1F088234AF0DA
:10129000EE0FFF1FBB1F661F771F881F9150504026
:1012A000A9F79E3F510570F05CCFA6CF5F3FECF3EE
:1012B000983EDCF3869577956795B795F795E79512
:1012C0009F5FC1F7FE2B880F911D9695879597F923
:1012D0000895AA1BBB1B51E107C0AA1FBB1FA6177D
:1012E000B70710F0A61BB70B881F991F5A95A9F7CF
:0E12F00080959095BC01CD010895F894FFCF34
:1012FE0008010601020001010B0A12011001020091
:10130E00010109082A011A0110000C0C0202020C3C
:10131E00060202020C060202020C0004030201077E
:10132E00040302010704030203010000C44300008A
:10133E00DC4333F3F64333D3024433D3124433D373
:10134E00244400003944000044440080BB440000A3
:10135E00FA44000048420000C8421C0F1C00000066
:10136E000000060F0F0F06000000000E0000000028
:10137E000000000E000000000000040E040000003B
:10138E0000000002010000000000000000100B072A
:10139E0007070000000000000A1B00020100000009
:1013AE000000040200000000000000000000000029
:1013BE0010080000000002010000000008040000F8
:1013CE0000000010000000000000010000000000FE
:1013DE0000000000000000000000040E04000000E9
:1013EE00000000040E04000000000000040E0400C3
:1013FE000000000000040E04000000000000040EB7
:10140E0004000000000000040E04000000000000B4
:10141E0000000000000000000000000E00000000B0
:10142E00000000000E00000000000000000E000092
:10143E000000000000000E00000000000000000E82
:10144E0000000000000000000E0000000000000080
:10145E0000000000000000000000060F0F0F060045
:10146E00000000060F0F0F0600000000060F0F0F02
:10147E000600000000060F0F0F060000000000001F
:10148E00000000000000000000000000000000004E
:10149E00000000000000000000001C0F1C000000F7
:1014AE000000001C0F1C0000000000001C0F1C00A0
:1014BE0000000000001C0F1C0000000000001C0FAC
:1014CE001C0000000000001C0F1C000000000000AB
:1014DE0000000000000000000000390370036503E7
:1014EE004F035A0344032E032020205472656E636B
:1014FE00682052756E202020202050726573732054
:10150E0020535441525400596F75204C6F7365210E
:0E151E002020202020202053636F72653A00A9
:00000001FF
