S014000046696E616C50726F6A6563742E737265634F
S11300004CC0000068C0000066C0000064C000006E
S113001062C0000060C000005EC000005CC0000060
S11300205AC0000058C0000056C0000054C0000070
S113003052C000000C9426084EC000004CC00000C2
S11300404AC0000048C0000046C0000044C0000090
S113005042C0000040C000003EC000003CC00000A0
S11300603AC0000038C0000036C0000034C00000B0
S113007032C0000030C000002EC000002CC00000C0
S11300802AC0000028C0000026C0000003010A01A5
S1130090070113010301FE00FE0011241FBECFEF70
S11300A0D0E4DEBFCDBF13E0A0E0B1E0E6E1F4E1CF
S11300B000E00BBF02C007900D92AE38B107D9F72C
S11300C024E0AEE8B3E001C01D92AF33B207E1F71C
S11300D004D50C94090A94CF20E030E0281739079E
S11300E04CF44EE056E0000041505109E1F72F5F17
S11300F03F4FF4CF08955E9888B95F9A00005F98E7
S113010082E090E0E9CF81E0F6CF813110F48158AC
S113011001C08155F0CF84E690E0DEDF88E3EBDFB9
S113012086E0E9DF8FE0E7DF81E0E5DF8AE090E069
S1130130D3CF5E9A88B95F9A00005F9881E090E01F
S1130140CBCFEF92FF920F931F93CF93DF93182F90
S1130150F62E072FD8DFCF2DD02F7E01888188235C
S113016051F001E0010F812FD0DF2196F70180814A
S1130170E0DF102FF2CFDF91CF911F910F91FF900D
S1130180EF900895CF93DF93009731F097FD6AC005
S1130190833091054CF066C020912C04213009F085
S11301A052C0C0EED3E00CC020912C04223008F0E1
S11301B056C0222309F456C08130910591F343C0FF
S11301C0EE81E1110AC08091310483FF03C061E034
S11301D070E02FC082FF2FC02AC08D8181112BC0F7
S11301E08C81813041F58E2F90E0FC013197E7300E
S11301F0F10508F5EA5BFF4F0C94000A8091DF03D8
S11302008370C9F404C08091DF0380FD14C06FEFD4
S11302107FEF06C08091DF0380FD0DC061E070E0D8
S1130220CE01A3D608C08091DF03837021F46FEF61
S11302307FEFCE015FD6299684E0C832D80709F053
S1130240BFCF81E090E02091DF03273010F42F5FCF
S113025001C020E02093DF03DF91CF91089582E075
S113026090E0F1CF80E090E0EECFDF92EF92FF924A
S11302700F931F93CF93DF93009731F097FD3FC007
S11302808330910574F03BC020912C042130C9F5D2
S113029080EEE82E83E0F82EC0E0D0E099E0D92E7D
S11302A00AC020912C04223038F5222341F18130F8
S11302B0910571F326C0F7018481813089F4DC9EB5
S11302C0F001DD9EF00D1124E052FC4F00811181FC
S11302D0228133814481558166817781808573D6FB
S11302E02196F9E0EF0EF11CC830D10521F780E02A
S11302F00CDF81E090E005C082E090E002C080E085
S113030090E0DF91CF911F910F91FF90EF90DF90DC
S11303100895EAE7F0E08081806E80830895282FB5
S1130320809178009091790070E0621B71096F5F91
S11303307F4F0E94EC09820F0895CF92DF92EF92D3
S1130340FF920F931F93CF938C01C62F862FDDDE70
S1130350C80160E177E20E94EC096C0180E3860F3A
S1130360E8DE81E08C0FD1DE88EEE82E83E0F82E03
S1130370C601B7010E94EC0980E3860FDADE82E051
S11303808C0FC3DEC801B7010E94EC0924E6E22EFB
S1130390F12CB7010E94EC0980E3860FCADE83E0EA
S11303A08C0FB3DEC801B7010E94EC093AE0E32EDA
S11303B0F12CB7010E94EC0980E3860FBADE84E0D9
S11303C08C0FA3DEC801B7010E94EC09805DCF91B8
S11303D01F910F91FF90EF90DF90CF90AACECF9313
S11303E0DF93299881E090E077DE299A81E090E01C
S11303F073DE2998D8E0C0E0CC0F189BC1602A981E
S113040081E090E069DE2A9A81E090E065DE2A9836
S1130410D15091F78C2FDF91CF910895892B19F446
S1130420DEDF8093310480E090E008958AE08093D9
S11304302F0481E08093300410922E0410922D0436
S113044080932C0410923304109232040895823065
S1130450910509F442C02CF4009721F1019771F140
S11304607DC08430910509F475C00CF45FC0059714
S113047009F074C020912F0480912D0490912E04D2
S1130480C2963FE0239F800D911D112490932E046A
S113049080932D0410922F041092300434DE66E70A
S11304A073E04BC010922F041092300410922C046D
S11304B060E473E081E045DE80E027DE8091310472
S11304C084FF4FC0B3DF80EE93E0C8D481E0809313
S11304D02C0419DE82E090E00895209132043091DA
S11304E033042F5F3F4F3093330420933204409101
S11304F0E403442321F0243942E0340730F082E05D
S113050080932C0483E090E00CC02B35324048F0FB
S113051020912304211105C083E080932C0485E0FD
S113052090E02091310425FF1EC018C010922F04C2
S113053010923004E8DD6FE573E081E002DE69E1EA
S113054080912D0490912E04F8DE80E0DEDD84E0BD
S113055090E008952091310425FF089580E090E013
S1130560089581E090E0089592B1823018F0966089
S113057092B905C0997F92B9813009F4119A139AFE
S11305801398139A90E0029728E01816190614F4A9
S1130590169A01C0169801971498149A1498215029
S11305A0A1F71598159A15980895CF93DF93EC0148
S11305B080912F04D9DF80913004882311F0179A99
S11305C001C01798209731F420912C04213009F0B0
S11305D0B5C003C0C0E0D0E0B1C080917800909174
S11305E0790065E070E0F8D60197F9F48091ED03A5
S11305F081111BC02093ED0380E18093E9031092E5
S1130600EA036091EC0380E08ADE8093EB0320919F
S1130610F0033091F1036091EF03A90178E0879F23
S1130620400D511D1124CA01ECD38091310490E096
S1130630880F892F881F990B892B79F18091F603F4
S113064081112BC080912F04882339F181E080939C
S1130650F60384E08093F2038091E1038093F30333
S11306609091E2039093F4032091F9033091FA03FB
S11306706091F803A90178E0979F400D511D112462
S1130680CA01BFD38AE091E0909335048093340487
S113069080912F04815080932F048091310486FF30
S11306A022C08091080481111EC0809130048823E7
S11306B0D1F08091E103811116C081E08093080498
S11306C093E09093040480930504109206046091CF
S11306D00A0480910B0490910C0493D3809130040C
S11306E0815080933004809178009091790065E086
S11306F070E072D6029761F480911A04811108C0E7
S113070081E080931A0490E1909316048093170477
S1130710809132049091330488559240069760F496
S113072080912304811108C081E08093230490E127
S113073090931F0480932004C1E0D0E0CE01DF91A8
S1130740CF9108950F931F93CF93DF93CDB7DEB767
S113075029970FB6F894DEBF0FBECDBF4D838889AD
S113076029899E89673089F0973019F4643079F0CB
S11307701DC0623061F4081750F0882341F0121351
S113078015C0992389F081E012C0943079F40813DC
S11307900DC012130BC08D81813041F48C898130DE
S11307A029F4011104C002C00817A9F380E02996B6
S11307B00FB6F894DEBF0FBECDBFDF91CF911F916E
S11307C00F910895CF93DF93EC019981888120E103
S11307D0929F800D112499DC80E2ABDC80E095DCF3
S11307E08E81813041F0863079F480912D0490918E
S11307F02E040A9605C080912D0490912E044496EF
S113080090932E0480932D0418821C82DF91CF9143
S113081008954F925F926F927F928F929F92AF92C0
S1130820BF92CF92DF92EF92FF920F931F93CF93D9
S1130830DF93009731F097FD8CC0833091053CF035
S113084088C020912C04213009F085C00CC020916F
S11308502C04223008F07AC0222309F47AC08130B3
S1130860910509F078C090910604809107049813CB
S113087003C084E094E0A6DF90EE892E93E0992EE5
S1130880E12CF12C29E0522E30E0632E31E0732E5E
S11308904E2C80EEA82E83E0B82EC12CD12C5E9C69
S11308A0E0015F9CD00D1124C052DC4F4C14A9F11F
S11308B05C9CF0015D9CF00D1124E052FC4F2DB7BF
S11308C03EB7295031090FB6F8943EBF0FBE2DBF75
S11308D0ADB7BEB71196852D01900D928A95E1F7BB
S11308E0088119812A813B814C815D816E817F81E0
S11308F0888528DF2DB73EB7275F3F4F0FB6F894A2
S11309003EBF0FBE2DBF813041F4C4015BDFC50182
S113091059DF70923504609234043FEFC31AD30A4E
S113092089E0A80EB11C98E0C916D10409F0BECF25
S11309302FEFE21AF20A39E0830E911C88E0E816E0
S1130940F10409F0A5CF81E090E005C082E090E0D9
S113095002C080E090E0DF91CF911F910F91FF9052
S1130960EF90DF90CF90BF90AF909F908F907F904B
S11309706F905F904F900895E0913404F0913504A6
S1130980309709F44BC00190F081E02D8091DD0394
S11309909091DE03E80FF91FE08184E0E89FF00105
S11309A01124EE58FE4F6081718182819381B6D10A
S11309B02091DB033091DC032F5F3F4F3093DC0346
S11309C02093DB03A0913404B09135048091DD03BE
S11309D09091DE031296ED91FC911397E80FF91FA5
S11309E0408150E02417350749F41092DC0310923B
S11309F0DB0301969093DE038093DD0314962D911F
S1130A003C9115978091DD039091DE038217930743
S1130A1090F0109235041092340405C060E070E642
S1130A208AEE96E47BD11092DE031092DD031092DD
S1130A30DC031092DB030895CF93DF93EC019CDF7A
S1130A40C230D10529F134F4209741F0C130D105E9
S1130A5071F03DC0C530D10594F139C091E080E01A
S1130A6020912C04211190E0C92FD82F32C08CE49E
S1130A7091E0909335048093340480912C04813068
S1130A8041F51092350410923404C2E0D0E021C044
S1130A9080912C04823049F484E191E090933504F0
S1130AA080933404C3E0D0E00AC0833041F48CE482
S1130AB091E09093350480933404C4E0D0E08091B5
S1130AC02C04811106C01092350410923404C0E045
S1130AD0D0E0CE01DF91CF910895CF93DF93CDB7CE
S1130AE0DEB72E970FB6F894DEBF0FBECDBF8EEFE4
S1130AF081B986E484B915B81FEF17B918B81AB9C3
S1130B001BB807DC80E885BF85BF8EE0E2E3F3E035
S1130B10DE01119601900D928A95E1F71093D003AE
S1130B2082E390E0A0E0B0E08093D1039093D203FD
S1130B30A093D303B093D4038093D5039093D603A7
S1130B40A093D703B093D8032EE032E03093DA03B6
S1130B502093D9031093C5038093C6039093C703CE
S1130B60A093C803B093C9038093CA039093CB03A3
S1130B70A093CC03B093CD0322EC30E03093CF03A9
S1130B802093CE031093BA0344E650E060E070E093
S1130B904093BB035093BC036093BD037093BE03A7
S1130BA04093BF035093C0036093C1037093C20387
S1130BB025E331E03093C4032093C3031093AF03C0
S1130BC04093B0035093B1036093B2037093B303A3
S1130BD04093B4035093B5036093B6037093B70383
S1130BE025ED32E03093B9032093B8031093A403A6
S1130BF08093A5039093A603A093A703B093A8039F
S1130C008093A9039093AA03A093AB03B093AC037E
S1130C1029E034E03093AE032093AD03109399039D
S1130C2080939A0390939B03A0939C03B0939D039A
S1130C3080939E0390939F03A093A003B093A1037A
S1130C4087E292E09093A3038093A20310938E0310
S1130C5040938F0350939003609391037093920396
S1130C604093930350939403609395037093960376
S1130C708CE195E0909398038093970362E370E08E
S1130C8080E090E01FD2BED146DA3DDA68E082EB24
S1130C9091E0CFD0ACD06E018FE0C80ED11CDE0144
S1130CA011967D01F701019111917F01D8011596EB
S1130CB04D915D916D917C91189711968D919D91B7
S1130CC00D90BC91A02D481759076A077B0780F047
S1130CD0F80180810184F285E02D082E000C990B27
S1130CE00995D8018C93F801158216821782108613
S1130CF0F80185819681A781B085C296A11DB11D99
S1130D0085839683A783B087EC14FD0459F68091FC
S1130D103E048823E1F310923E04C1CFCF92DF92C8
S1130D20EF92FF926B017C019B01AC01609128045E
S1130D307091290480912A0490912B04D4D18823A2
S1130D4009F450C020E030E0A901C701B601CBD1BD
S1130D50811104C080919100887003C0809191003A
S1130D6083608093910028E539E344E75FE3C7019A
S1130D70B601B9D187FF07C08FEF9FEF9093990019
S1130D808093980023C020E034E244EF56E4C70186
S1130D90B601BBD218162CF4109299001092980048
S1130DA015C020E030E040E053E4C701B601B1D201
S1130DB09B01AC0160E074E284EF9AE498D1FFD126
S1130DC06150710970939900609398001092950096
S1130DD010929400C0922804D0922904E0922A042C
S1130DE0F0922B04FF90EF90DF90CF90089580E471
S1130DF0809390008BE08093910060E070E0CB01E1
S1130E008DCF0F931F93CF93DF938C01862F880F81
S1130E10880F880F805C6FD9E801085F1F4F8991A4
S1130E2088D9C017D107D9F7DF91CF911F910F91BE
S1130E3008950F931F93CF93DF93D62F8C01C0E0B7
S1130E40CD1739F06C2FC801DCDFCF5F085F1F4F6F
S1130E50F7CFDF91CF911F910F910895CF93DF9337
S1130E60FC0180E090E029E0DF01A80FB91FED014B
S1130E70322F19923A95E9F7099688349105A1F72A
S1130E8023E0208391E09183128285E0838394831D
S1130E90168242EF52E0508747832487978742EBBC
S1130EA052E0518B408B30E131879587858B32E05E
S1130EB0308F42E752E0528F418F868F21A353A394
S1130EC042A32FE0238F978F87A394E092A722E376
S1130ED032E034A723A796E090AB83AB22EF31E056
S1130EE035AB24AB94AFEB5BFF4F87E08083DF919E
S1130EF0CF910895CF93DF93EC018A816F3F3FEF49
S1130F007307A1F06130710511F5882311F0815048
S1130F1011C089818130D9F48B818A838881805F73
S1130F20F4D880E206D98981815010C09B81891749
S1130F3018F48F5F8A830BC08981811108C01A82DB
S1130F408881E3D880E2F5D889818F5F89832A81FB
S1130F508F8198856E8138E0239F800D911D112427
S1130F6050DF80E0DF91CF91D0C8CF93DF93EC01C5
S1130F706F3F2FEF720721F06130710591F01FC0B0
S1130F809981888120E1929F800D1124BED880E24E
S1130F90D0D88881823010F0815010C018821C8211
S1130FA00EC09981888120E1929F800D1124ADD8D3
S1130FB080E2BFD88881803188F78F5F888380E0A2
S1130FC0DF91CF91A2C80F931F93CF93DF93CDB737
S1130FD0DEB729970FB6F894DEBF0FBECDBF6F837F
S1130FE0802F90E1199F800D11248FD88F8129962D
S1130FF00FB6F894DEBF0FBECDBFDF91CF911F9126
S11310000F9197C88BE0809381008DE790E09093D7
S113101089008093880082E080936F00109285009D
S11310201092840080913A0490913B04A0913C0476
S1131030B0913D048093360490933704A093380410
S1131040B09339048FB780688FBF08951F920F92B1
S11310500FB60F9211248F939F93AF93BF938091F8
S1131060360490913704A0913804B0913904019763
S1131070A109B1098093360490933704A0933804EE
S1131080B0933904892B8A2B8B2B99F481E08093BC
S11310903E0480913A0490913B04A0913C04B091A9
S11310A03D048093360490933704A0933804B0939E
S11310B03904BF91AF919F918F910F900FBE0F9004
S11310C01F90189560933A0470933B0480933C04FA
S11310D090933D04609336047093370480933804EE
S11310E09093390408959CD008F481E008950CD0BD
S11310F0D2C0CAD040F0C1D030F021F45F3F19F023
S1131100B3C05111FCC0B6C0D7D098F39923C9F32A
S11311105523B1F3951B550BBB27AA2762177307F9
S1131120840738F09F5F5F4F220F331F441FAA1FAD
S1131130A9F333D00E2E3AF0E0E830D0915050406D
S1131140E695001CCAF729D0FE2F27D0660F771F1B
S1131150881FBB1F261737074807AB07B0E809F0FD
S1131160BB0B802DBF01FF2793585F4F2AF09E3F92
S1131170510568F079C0C3C05F3FECF3983EDCF3DF
S1131180869577956795B795F7959F5FC9F7880F0B
S1131190911D9695879597F90895E1E0660F771F5D
S11311A0881FBB1F621773078407BA0720F0621BEE
S11311B0730B840BBA0BEE1F88F7E095089504D0E7
S11311C06894B1119CC008957FD088F09F5790F027
S11311D0B92F9927B751A0F0D1F0660F771F881F58
S11311E0991F1AF0BA95C9F712C0B13081F086D0B0
S11311F0B1E0089583C0672F782F8827B85F39F04E
S1131200B93FCCF3869577956795B395D9F73EF4B6
S113121090958095709561957F4F8F4F9F4F08955E
S1131220990F0008550FAA0BE0E8FEEF16161706F3
S1131230E807F907C0F012161306E407F50798F05B
S1131240621B730B840B950B39F40A2661F0232B74
S1131250242B252B21F408950A2609F4A140A695F0
S11312608FEF811D811D089597F99F6780E870E0D5
S113127060E008959FEF80EC089500240A94161608
S1131280170618060906089500240A941216130670
S1131290140605060895092E0394000C11F48823FE
S11312A052F0BB0F40F4BF2B11F460FF04C06F5F1A
S11312B07F4F8F4F9F4F089557FD9058440F551FF0
S11312C059F05F3F71F04795880F97FB991F61F0C4
S11312D09F3F79F087950895121613061406551F3B
S11312E0F2CF4695F1DF08C0161617061806991FA7
S11312F0F1CF86957105610508940895E894BB279C
S113130066277727CB0197F908958ADF08F48FEFD2
S113131008950BD0C0CFB1DF28F0B6DF18F09523C5
S113132009F0A2CFA7CF1124EACFC6DFA0F3959F7F
S1131330D1F3950F50E0551F629FF001729FBB27B8
S1131340F00DB11D639FAA27F00DB11DAA1F649F64
S11313506627B00DA11D661F829F2227B00DA11D17
S1131360621F739FB00DA11D621F839FA00D611D9D
S1131370221F749F3327A00D611D231F849F600DBE
S1131380211D822F762F6A2F11249F5750408AF0F7
S1131390E1F088234AF0EE0FFF1FBB1F661F771F83
S11313A0881F91505040A9F79E3F510570F05CCFC3
S11313B0A6CF5F3FECF3983EDCF38695779567956F
S11313C0B795F795E7959F5FC1F7FE2B880F911DA1
S11313D09695879597F90895AA1BBB1B51E107C001
S11313E0AA1FBB1FA617B70710F0A61BB70B881FB1
S11313F0991F5A95A9F780959095BC01CD01089540
S1131400EE0FFF1F0024001C0BBE0790F691E02D89
S10914100994F894FFCFDB
S113141608010601020001010F0E1201100102006B
S113142601010D0C33011A0119000501050105011D
S113143603030603030C0501050105010303060363
S1131446030C01021002100210000402000402063A
S1131456100610061007040200040210620152016D
S113146610000C0C0202020C060202020C06020216
S1131476020C04080706050B080706050B080706F1
S11314860705CDCC82439AD99243CDCCA443000020
S1131496B9430000C4430000DC4333F3F64333D3BB
S11314A6024433D3124433D32444000039440000A5
S11314B644440080BB440000FA4400004842000053
S11314C6C8421C0F1C0000000000060F0F0F060088
S11314D60000000E000000000000000E00000000E6
S11314E60000040E040000000000000201000000D9
S11314F60000000000100B070707000000000000B2
S11315060A1B0002010000000000040200000000A3
S113151600000000000000001008000000000201A6
S11315260000000008040000000000100000000095
S113153600000100000000000000000000000000A0
S11315460000040E04000000000000040E04000065
S113155600000000040E04000000000000040E0455
S1131566000000000000040E040000000000000457
S11315760E0400000000000000000000000000004F
S11315860000000E00000000000000000E00000035
S113159600000000000E00000000000000000E0025
S11315A6000000000000000E000000000000000023
S11315B60E00000000000000000000000000000013
S11315C60000060F0F0F0600000000060F0F0F069F
S11315D600000000060F0F0F0600000000060F0FA4
S11315E60F060000000000000000000000000000DC
S11315F600000000000000000000000000000000E1
S113160600001C0F1C0000000000001C0F1C000042
S1131616000000001C0F1C0000000000001C0F1C32
S11316260000000000001C0F1C0000000000001C4D
S11316360F1C000000000000000000000000000075
S113164600009903D003C503AF03BA03A4038E03B2
S11316562020205472656E63682052756E20202007
S113166620205072657373202053544152540059FC
S11316766F75204C6F736521202020202020205375
S1131686636F72653A00596F752057696E21202081
S111169620202020202053636F72653A00004C
S9030000FC
